{"abi":[{"type":"function","name":"UPGRADE_INTERFACE_VERSION","inputs":[],"outputs":[{"name":"","type":"string","internalType":"string"}],"stateMutability":"view"},{"type":"function","name":"assetTradeVolume","inputs":[{"name":"","type":"address","internalType":"address"}],"outputs":[{"name":"","type":"uint256","internalType":"uint256"}],"stateMutability":"view"},{"type":"function","name":"collectFeesAndRecordVolume","inputs":[{"name":"_feeToken","type":"address","internalType":"address"},{"name":"_feeAmount","type":"uint256","internalType":"uint256"},{"name":"_asset","type":"address","internalType":"address"},{"name":"_tradeSize","type":"uint256","internalType":"uint256"}],"outputs":[],"stateMutability":"nonpayable"},{"type":"function","name":"getAllAssetVolumes","inputs":[],"outputs":[{"name":"assets","type":"address[]","internalType":"address[]"},{"name":"volumes","type":"uint256[]","internalType":"uint256[]"}],"stateMutability":"view"},{"type":"function","name":"getAllTrackedAssets","inputs":[],"outputs":[{"name":"","type":"address[]","internalType":"address[]"}],"stateMutability":"view"},{"type":"function","name":"getAssetTradeVolume","inputs":[{"name":"asset","type":"address","internalType":"address"}],"outputs":[{"name":"","type":"uint256","internalType":"uint256"}],"stateMutability":"view"},{"type":"function","name":"getTrackedAssetAt","inputs":[{"name":"index","type":"uint256","internalType":"uint256"}],"outputs":[{"name":"","type":"address","internalType":"address"}],"stateMutability":"view"},{"type":"function","name":"getTrackedAssetsCount","inputs":[],"outputs":[{"name":"","type":"uint256","internalType":"uint256"}],"stateMutability":"view"},{"type":"function","name":"initialize","inputs":[{"name":"_strataxPositionNft","type":"address","internalType":"address"},{"name":"_owner","type":"address","internalType":"address"},{"name":"_strataxFee","type":"uint256","internalType":"uint256"}],"outputs":[],"stateMutability":"nonpayable"},{"type":"function","name":"owner","inputs":[],"outputs":[{"name":"","type":"address","internalType":"address"}],"stateMutability":"view"},{"type":"function","name":"proxiableUUID","inputs":[],"outputs":[{"name":"","type":"bytes32","internalType":"bytes32"}],"stateMutability":"view"},{"type":"function","name":"renounceOwnership","inputs":[],"outputs":[],"stateMutability":"nonpayable"},{"type":"function","name":"setFee","inputs":[{"name":"_newFee","type":"uint256","internalType":"uint256"}],"outputs":[],"stateMutability":"nonpayable"},{"type":"function","name":"setStrataxPositionNft","inputs":[{"name":"_strataxPositionNft","type":"address","internalType":"address"}],"outputs":[],"stateMutability":"nonpayable"},{"type":"function","name":"strataxFee","inputs":[],"outputs":[{"name":"","type":"uint256","internalType":"uint256"}],"stateMutability":"view"},{"type":"function","name":"strataxPositionNft","inputs":[],"outputs":[{"name":"","type":"address","internalType":"address"}],"stateMutability":"view"},{"type":"function","name":"totalTradeVolume","inputs":[],"outputs":[{"name":"","type":"uint256","internalType":"uint256"}],"stateMutability":"view"},{"type":"function","name":"transferOwnership","inputs":[{"name":"newOwner","type":"address","internalType":"address"}],"outputs":[],"stateMutability":"nonpayable"},{"type":"function","name":"upgradeToAndCall","inputs":[{"name":"newImplementation","type":"address","internalType":"address"},{"name":"data","type":"bytes","internalType":"bytes"}],"outputs":[],"stateMutability":"payable"},{"type":"function","name":"withdrawFees","inputs":[{"name":"_token","type":"address","internalType":"address"}],"outputs":[],"stateMutability":"nonpayable"},{"type":"function","name":"withdrawFees","inputs":[{"name":"_token","type":"address","internalType":"address"},{"name":"_amount","type":"uint256","internalType":"uint256"}],"outputs":[],"stateMutability":"nonpayable"},{"type":"event","name":"FeeUpdated","inputs":[{"name":"newFee","type":"uint256","indexed":true,"internalType":"uint256"},{"name":"oldFee","type":"uint256","indexed":true,"internalType":"uint256"}],"anonymous":false},{"type":"event","name":"FeesCollected","inputs":[{"name":"token","type":"address","indexed":true,"internalType":"address"},{"name":"from","type":"address","indexed":true,"internalType":"address"},{"name":"amount","type":"uint256","indexed":true,"internalType":"uint256"}],"anonymous":false},{"type":"event","name":"FeesWithdrawn","inputs":[{"name":"token","type":"address","indexed":true,"internalType":"address"},{"name":"to","type":"address","indexed":true,"internalType":"address"},{"name":"amount","type":"uint256","indexed":true,"internalType":"uint256"}],"anonymous":false},{"type":"event","name":"Initialized","inputs":[{"name":"version","type":"uint64","indexed":false,"internalType":"uint64"}],"anonymous":false},{"type":"event","name":"OwnershipTransferred","inputs":[{"name":"previousOwner","type":"address","indexed":true,"internalType":"address"},{"name":"newOwner","type":"address","indexed":true,"internalType":"address"}],"anonymous":false},{"type":"event","name":"TradeVolumeRecorded","inputs":[{"name":"asset","type":"address","indexed":true,"internalType":"address"},{"name":"tradeSize","type":"uint256","indexed":false,"internalType":"uint256"},{"name":"totalVolume","type":"uint256","indexed":false,"internalType":"uint256"}],"anonymous":false},{"type":"event","name":"Upgraded","inputs":[{"name":"implementation","type":"address","indexed":true,"internalType":"address"}],"anonymous":false},{"type":"error","name":"AddressEmptyCode","inputs":[{"name":"target","type":"address","internalType":"address"}]},{"type":"error","name":"ERC1967InvalidImplementation","inputs":[{"name":"implementation","type":"address","internalType":"address"}]},{"type":"error","name":"ERC1967NonPayable","inputs":[]},{"type":"error","name":"FailedCall","inputs":[]},{"type":"error","name":"InvalidInitialization","inputs":[]},{"type":"error","name":"NotInitializing","inputs":[]},{"type":"error","name":"OwnableInvalidOwner","inputs":[{"name":"owner","type":"address","internalType":"address"}]},{"type":"error","name":"OwnableUnauthorizedAccount","inputs":[{"name":"account","type":"address","internalType":"address"}]},{"type":"error","name":"UUPSUnauthorizedCallContext","inputs":[]},{"type":"error","name":"UUPSUnsupportedProxiableUUID","inputs":[{"name":"slot","type":"bytes32","internalType":"bytes32"}]}],"bytecode":{"object":"0x60a08060405234602957306080526113fd908161002e823960805181818161062901526107050152f35b5f80fdfe6080806040526004361015610012575f80fd5b5f3560e01c90816309f739b814610d5057508063164e68de14610c055780631794bb3c14610a45578063231a14d4146109c257806323663ce4146109575780633f506d44146108da5780633fa58f0d146108bd57806347525c84146108955780634f1ef2861461067d57806352d1902d1461061757806369fe0e2d146105905780636aad0cc514610132578063715018a61461052957806375c697631461050d5780638da5cb5b146104d9578063ad3b1b47146102e3578063ad3cb1cc14610285578063b70f461514610268578063d75644181461016a578063e9274ad6146101325763f2fde38b14610103575f80fd5b3461012e57602036600319011261012e5761012c61011f611017565b6101276111eb565b61117a565b005b5f80fd5b3461012e57602036600319011261012e576001600160a01b03610153611017565b165f526005602052602060405f2054604051908152f35b3461012e575f36600319011261012e5760035461018681611120565b9061019081611108565b61019d6040519182611069565b8181526101a982611108565b602082019290601f19013684375f5b818110610214576101db858585602060405194859460408652604086019061102d565b918483038286015251918281520191905f5b8181106101fb575050500390f35b82518452859450602093840193909201916001016101ed565b8061022060019261121e565b838060a01b0391549060031b1c166102388288611152565b52818060a01b036102498288611152565b51165f52600560205260405f20546102618286611152565b52016101b8565b3461012e575f36600319011261012e576020600354604051908152f35b3461012e575f36600319011261012e5760408051906102a48183611069565b600582526020820191640352e302e360dc1b83528151928391602083525180918160208501528484015e5f828201840152601f01601f19168101030190f35b3461012e57604036600319011261012e576102fc611017565b602435906103086111eb565b6001600160a01b031661031c81151561108b565b8115610495576040516370a0823160e01b8152306004820152602081602481855afa80156104195783915f91610460575b50106104245760405163a9059cbb60e01b8152336004820152602481018390526020816044815f865af1908115610419575f916103ea575b50156103b35733907f5e110f8bc8a20b65dcc87f224bdf1cc039346e267118bae2739847f07321ffa85f80a4005b60405162461bcd60e51b815260206004820152600f60248201526e151c985b9cd9995c8819985a5b1959608a1b6044820152606490fd5b61040c915060203d602011610412575b6104048183611069565b8101906110cf565b83610385565b503d6103fa565b6040513d5f823e3d90fd5b60405162461bcd60e51b8152602060048201526014602482015273496e73756666696369656e742062616c616e636560601b6044820152606490fd5b9150506020813d60201161048d575b8161047c60209383611069565b8101031261012e578290518461034d565b3d915061046f565b606460405162461bcd60e51b815260206004820152602060248201527f416d6f756e74206d7573742062652067726561746572207468616e207a65726f6044820152fd5b3461012e575f36600319011261012e575f5160206113685f395f51905f52546040516001600160a01b039091168152602090f35b3461012e575f36600319011261012e5760205f54604051908152f35b3461012e575f36600319011261012e576105416111eb565b5f5160206113685f395f51905f5280546001600160a01b031981169091555f906001600160a01b03167f8be0079c531659141344cd1fd0a4f28419497f9722a3daafe3b4186f6b6457e08280a3005b3461012e57602036600319011261012e576004356105ac6111eb565b5f54906127108110156105e257805f557f528d9479e9f9889a87a3c30c7f7ba537e5e59c4c85a37733b16e57c62df613025f80a3005b60405162461bcd60e51b815260206004820152600d60248201526c46656520746f6f206c6172676560981b6044820152606490fd5b3461012e575f36600319011261012e577f00000000000000000000000000000000000000000000000000000000000000006001600160a01b0316300361066e5760206040515f5160206113885f395f51905f528152f35b63703e46dd60e11b5f5260045ffd5b604036600319011261012e57610691611017565b6024359067ffffffffffffffff821161012e573660238301121561012e57816004013567ffffffffffffffff811161088157604051926106db601f8301601f191660200185611069565b818452366024838301011161012e57815f9260246020930183870137840101526001600160a01b037f00000000000000000000000000000000000000000000000000000000000000001630811490811561085f575b5061066e5761073d6111eb565b6040516352d1902d60e01b81526001600160a01b0382169290602081600481875afa5f918161082b575b5061077f5783634c9c8ce360e01b5f5260045260245ffd5b805f5160206113885f395f51905f528592036108195750823b15610807575f5160206113885f395f51905f5280546001600160a01b031916821790557fbc7cd75a20ee27fd9adebab32041f755214dbc6bffa90cc0225b39da2e5c2d3b5f80a28051156107ef5761012c916112db565b5050346107f857005b63b398979f60e01b5f5260045ffd5b634c9c8ce360e01b5f5260045260245ffd5b632a87526960e21b5f5260045260245ffd5b9091506020813d602011610857575b8161084760209383611069565b8101031261012e57519085610767565b3d915061083a565b5f5160206113885f395f51905f52546001600160a01b03161415905083610730565b634e487b7160e01b5f52604160045260245ffd5b3461012e575f36600319011261012e576001546040516001600160a01b039091168152602090f35b3461012e575f36600319011261012e576020600254604051908152f35b3461012e57602036600319011261012e5760043560035481101561091c5761090360209161121e565b905460405160039290921b1c6001600160a01b03168152f35b60405162461bcd60e51b8152602060048201526013602482015272496e646578206f7574206f6620626f756e647360681b6044820152606490fd5b3461012e575f36600319011261012e5760035461097381611120565b905f5b81811061099757604051602080825281906109939082018661102d565b0390f35b806109a360019261121e565b838060a01b0391549060031b1c166109bb8286611152565b5201610976565b3461012e57602036600319011261012e576109db611017565b6109e36111eb565b6001600160a01b03168015610a0e576bffffffffffffffffffffffff60a01b60015416176001555f80f35b60405162461bcd60e51b815260206004820152600f60248201526e496e76616c6964206164647265737360881b6044820152606490fd5b3461012e57606036600319011261012e57610a5e611017565b602435906001600160a01b038216820361012e576044355f5160206113a85f395f51905f525460ff8160401c16159367ffffffffffffffff821680159081610bfd575b6001149081610bf3575b159081610bea575b50610bdb5767ffffffffffffffff1982166001175f5160206113a85f395f51905f5255610af19185610baf575b50610ae96112b0565b6101276112b0565b612710811015610b7a575f5560018060a01b03166bffffffffffffffffffffffff60a01b6001541617600155610b2357005b68ff0000000000000000195f5160206113a85f395f51905f5254165f5160206113a85f395f51905f52557fc7f505b2f371ae2175ee4913f4499e1f2633a7b5936321eed1cdaeb6115181d2602060405160018152a1005b60405162461bcd60e51b815260206004820152600d60248201526c0466565203c3d2031302c30303609c1b6044820152606490fd5b68ffffffffffffffffff191668010000000000000001175f5160206113a85f395f51905f525585610ae0565b63f92ee8a960e01b5f5260045ffd5b90501586610ab3565b303b159150610aab565b869150610aa1565b3461012e57602036600319011261012e57610c1e611017565b610c266111eb565b6001600160a01b0316610c3a81151561108b565b6040516370a0823160e01b815230600482015290602082602481845afa918215610419575f92610d1c575b508115610ce15760405163a9059cbb60e01b8152336004820152602481018390526020816044815f865af1801561041957610cc4575b5033907f5e110f8bc8a20b65dcc87f224bdf1cc039346e267118bae2739847f07321ffa85f80a4005b610cdc9060203d602011610412576104048183611069565b610c9b565b60405162461bcd60e51b81526020600482015260136024820152724e6f206665657320746f20776974686472617760681b6044820152606490fd5b9091506020813d602011610d48575b81610d3860209383611069565b8101031261012e57519082610c65565b3d9150610d2b565b3461012e57608036600319011261012e57610d69611017565b6044356001600160a01b03811692916024359184900361012e5760015463207d373360e01b84523360048501526064359390602090829060249082906001600160a01b03165afa908115610419575f91610fe5575b5015610fad576001600160a01b031690610dd982151561108b565b8315610f70578215610f1f5780610e99575b907f9a82cdbfbb294e3bbd414bac25657fcdf14a39343708e68e2cf7e8df5672d14592604092855f526004602052835f205415610e8a575b855f526005602052835f20610e398382546110e7565b9055610e47826002546110e7565b60025583519233907f9bcb6d1f38f6800906185471a11ede9a8e16200853225aa62558db6076490f2d5f80a4845f526005602052825f20549082526020820152a2005b610e9386611236565b50610e23565b90604051926323b872dd60e01b84523360048501523060248501528260448501526020846064815f865af1928315610419577f9a82cdbfbb294e3bbd414bac25657fcdf14a39343708e68e2cf7e8df5672d14594604094610f00575b509192509250610deb565b610f189060203d602011610412576104048183611069565b5086610ef5565b60405162461bcd60e51b8152602060048201526024808201527f54726164652073697a65206d7573742062652067726561746572207468616e206044820152637a65726f60e01b6064820152608490fd5b60405162461bcd60e51b8152602060048201526015602482015274496e76616c6964206173736574206164647265737360581b6044820152606490fd5b60405162461bcd60e51b815260206004820152601060248201526f24b73b30b634b2103837b9b4ba34b7b760811b6044820152606490fd5b90506020813d60201161100f575b8161100060209383611069565b8101031261012e575185610dbe565b3d9150610ff3565b600435906001600160a01b038216820361012e57565b90602080835192838152019201905f5b81811061104a5750505090565b82516001600160a01b031684526020938401939092019160010161103d565b90601f8019910116810190811067ffffffffffffffff82111761088157604052565b1561109257565b60405162461bcd60e51b8152602060048201526015602482015274496e76616c696420746f6b656e206164647265737360581b6044820152606490fd5b9081602091031261012e5751801515810361012e5790565b919082018092116110f457565b634e487b7160e01b5f52601160045260245ffd5b67ffffffffffffffff81116108815760051b60200190565b9061112a82611108565b6111376040519182611069565b8281528092611148601f1991611108565b0190602036910137565b80518210156111665760209160051b010190565b634e487b7160e01b5f52603260045260245ffd5b6001600160a01b031680156111d8575f5160206113685f395f51905f5280546001600160a01b0319811683179091556001600160a01b03167f8be0079c531659141344cd1fd0a4f28419497f9722a3daafe3b4186f6b6457e05f80a3565b631e4fbdf760e01b5f525f60045260245ffd5b5f5160206113685f395f51905f52546001600160a01b0316330361120b57565b63118cdaa760e01b5f523360045260245ffd5b6003548110156111665760035f5260205f2001905f90565b805f52600460205260405f2054155f146112ab57600354680100000000000000008110156108815760018101600355600354811015611166577fc2575a0e9e593c00f959f8c92f12db2869c3395a3b0502d05e2516446f71f85b018190556003545f9182526004602052604090912055600190565b505f90565b60ff5f5160206113a85f395f51905f525460401c16156112cc57565b631afcd79f60e31b5f5260045ffd5b905f8091602081519101845af48080611354575b1561130f5750506040513d81523d5f602083013e60203d82010160405290565b1561133457639996b31560e01b5f9081526001600160a01b0391909116600452602490fd5b3d15611345576040513d5f823e3d90fd5b63d6bda27560e01b5f5260045ffd5b503d1515806112ef5750813b15156112ef56fe9016d09d72d40fdae2fd8ceac6b6234c7706214fd39c1cd1e609a0528c199300360894a13ba1a3210667c828492db98dca3e2076cc3735a920a3ca505d382bbcf0c57e16840df040f15088dc2f81fe391c3923bec73e23a9662efc9c229c6a00a2646970667358221220a6f382d8e3511fe39c2ebea2b821b959265b77db15c877f3ef9f47be282a452d64736f6c634300081e0033","linkReferences":{}},"methodIdentifiers":{"UPGRADE_INTERFACE_VERSION()":"ad3cb1cc","assetTradeVolume(address)":"6aad0cc5","collectFeesAndRecordVolume(address,uint256,address,uint256)":"09f739b8","getAllAssetVolumes()":"d7564418","getAllTrackedAssets()":"23663ce4","getAssetTradeVolume(address)":"e9274ad6","getTrackedAssetAt(uint256)":"3f506d44","getTrackedAssetsCount()":"b70f4615","initialize(address,address,uint256)":"1794bb3c","owner()":"8da5cb5b","proxiableUUID()":"52d1902d","renounceOwnership()":"715018a6","setFee(uint256)":"69fe0e2d","setStrataxPositionNft(address)":"231a14d4","strataxFee()":"75c69763","strataxPositionNft()":"47525c84","totalTradeVolume()":"3fa58f0d","transferOwnership(address)":"f2fde38b","upgradeToAndCall(address,bytes)":"4f1ef286","withdrawFees(address)":"164e68de","withdrawFees(address,uint256)":"ad3b1b47"},"id":76}