{"abi":[{"type":"constructor","inputs":[],"stateMutability":"nonpayable"},{"type":"receive","stateMutability":"payable"},{"type":"function","name":"UPGRADE_INTERFACE_VERSION","inputs":[],"outputs":[{"name":"","type":"string","internalType":"string"}],"stateMutability":"view"},{"type":"function","name":"USD_PRICE_DECIMALS","inputs":[],"outputs":[{"name":"","type":"uint256","internalType":"uint256"}],"stateMutability":"view"},{"type":"function","name":"USD_PRICE_PRECISION","inputs":[],"outputs":[{"name":"","type":"uint256","internalType":"uint256"}],"stateMutability":"view"},{"type":"function","name":"buy","inputs":[{"name":"paymentToken","type":"address","internalType":"address"},{"name":"paymentAmount","type":"uint256","internalType":"uint256"},{"name":"minStrataxOut","type":"uint256","internalType":"uint256"},{"name":"pythUpdateData","type":"bytes[]","internalType":"bytes[]"}],"outputs":[{"name":"strataxOut","type":"uint256","internalType":"uint256"}],"stateMutability":"payable"},{"type":"function","name":"initialize","inputs":[{"name":"owner_","type":"address","internalType":"address"},{"name":"strataxToken_","type":"address","internalType":"address"},{"name":"pyth_","type":"address","internalType":"address"},{"name":"paymentRecipient_","type":"address","internalType":"address"},{"name":"strataxPriceUsd_","type":"uint256","internalType":"uint256"}],"outputs":[],"stateMutability":"nonpayable"},{"type":"function","name":"owner","inputs":[],"outputs":[{"name":"","type":"address","internalType":"address"}],"stateMutability":"view"},{"type":"function","name":"paymentRecipient","inputs":[],"outputs":[{"name":"","type":"address","internalType":"address"}],"stateMutability":"view"},{"type":"function","name":"paymentTokenConfigs","inputs":[{"name":"","type":"address","internalType":"address"}],"outputs":[{"name":"isWhitelisted","type":"bool","internalType":"bool"},{"name":"pythPriceId","type":"bytes32","internalType":"bytes32"},{"name":"maxPriceAge","type":"uint256","internalType":"uint256"}],"stateMutability":"view"},{"type":"function","name":"proxiableUUID","inputs":[],"outputs":[{"name":"","type":"bytes32","internalType":"bytes32"}],"stateMutability":"view"},{"type":"function","name":"pyth","inputs":[],"outputs":[{"name":"","type":"address","internalType":"address"}],"stateMutability":"view"},{"type":"function","name":"quote","inputs":[{"name":"paymentToken","type":"address","internalType":"address"},{"name":"paymentAmount","type":"uint256","internalType":"uint256"}],"outputs":[{"name":"strataxOut","type":"uint256","internalType":"uint256"}],"stateMutability":"view"},{"type":"function","name":"removePaymentToken","inputs":[{"name":"token","type":"address","internalType":"address"}],"outputs":[],"stateMutability":"nonpayable"},{"type":"function","name":"renounceOwnership","inputs":[],"outputs":[],"stateMutability":"nonpayable"},{"type":"function","name":"setPaymentRecipient","inputs":[{"name":"newRecipient","type":"address","internalType":"address"}],"outputs":[],"stateMutability":"nonpayable"},{"type":"function","name":"setPyth","inputs":[{"name":"newPyth","type":"address","internalType":"address"}],"outputs":[],"stateMutability":"nonpayable"},{"type":"function","name":"setStrataxPriceUsd","inputs":[{"name":"newPriceUsd","type":"uint256","internalType":"uint256"}],"outputs":[],"stateMutability":"nonpayable"},{"type":"function","name":"strataxPriceUsd","inputs":[],"outputs":[{"name":"","type":"uint256","internalType":"uint256"}],"stateMutability":"view"},{"type":"function","name":"strataxToken","inputs":[],"outputs":[{"name":"","type":"address","internalType":"address"}],"stateMutability":"view"},{"type":"function","name":"transferOwnership","inputs":[{"name":"newOwner","type":"address","internalType":"address"}],"outputs":[],"stateMutability":"nonpayable"},{"type":"function","name":"upgradeToAndCall","inputs":[{"name":"newImplementation","type":"address","internalType":"address"},{"name":"data","type":"bytes","internalType":"bytes"}],"outputs":[],"stateMutability":"payable"},{"type":"function","name":"whitelistPaymentToken","inputs":[{"name":"token","type":"address","internalType":"address"},{"name":"priceId","type":"bytes32","internalType":"bytes32"},{"name":"maxPriceAge","type":"uint256","internalType":"uint256"}],"outputs":[],"stateMutability":"nonpayable"},{"type":"function","name":"withdrawUnsoldTokens","inputs":[{"name":"to","type":"address","internalType":"address"},{"name":"amount","type":"uint256","internalType":"uint256"}],"outputs":[],"stateMutability":"nonpayable"},{"type":"event","name":"Initialized","inputs":[{"name":"version","type":"uint64","indexed":false,"internalType":"uint64"}],"anonymous":false},{"type":"event","name":"OwnershipTransferred","inputs":[{"name":"previousOwner","type":"address","indexed":true,"internalType":"address"},{"name":"newOwner","type":"address","indexed":true,"internalType":"address"}],"anonymous":false},{"type":"event","name":"PaymentRecipientUpdated","inputs":[{"name":"oldRecipient","type":"address","indexed":true,"internalType":"address"},{"name":"newRecipient","type":"address","indexed":true,"internalType":"address"}],"anonymous":false},{"type":"event","name":"PaymentTokenRemoved","inputs":[{"name":"token","type":"address","indexed":true,"internalType":"address"}],"anonymous":false},{"type":"event","name":"PaymentTokenWhitelisted","inputs":[{"name":"token","type":"address","indexed":true,"internalType":"address"},{"name":"priceId","type":"bytes32","indexed":true,"internalType":"bytes32"},{"name":"maxPriceAge","type":"uint256","indexed":false,"internalType":"uint256"}],"anonymous":false},{"type":"event","name":"PythUpdated","inputs":[{"name":"oldPyth","type":"address","indexed":true,"internalType":"address"},{"name":"newPyth","type":"address","indexed":true,"internalType":"address"}],"anonymous":false},{"type":"event","name":"StrataxPriceUpdated","inputs":[{"name":"oldPriceUsd","type":"uint256","indexed":false,"internalType":"uint256"},{"name":"newPriceUsd","type":"uint256","indexed":false,"internalType":"uint256"}],"anonymous":false},{"type":"event","name":"TokensPurchased","inputs":[{"name":"buyer","type":"address","indexed":true,"internalType":"address"},{"name":"paymentToken","type":"address","indexed":true,"internalType":"address"},{"name":"paymentAmount","type":"uint256","indexed":false,"internalType":"uint256"},{"name":"paymentTokenPriceUsd","type":"uint256","indexed":false,"internalType":"uint256"},{"name":"strataxOut","type":"uint256","indexed":false,"internalType":"uint256"}],"anonymous":false},{"type":"event","name":"Upgraded","inputs":[{"name":"implementation","type":"address","indexed":true,"internalType":"address"}],"anonymous":false},{"type":"error","name":"AddressEmptyCode","inputs":[{"name":"target","type":"address","internalType":"address"}]},{"type":"error","name":"ERC1967InvalidImplementation","inputs":[{"name":"implementation","type":"address","internalType":"address"}]},{"type":"error","name":"ERC1967NonPayable","inputs":[]},{"type":"error","name":"FailedCall","inputs":[]},{"type":"error","name":"InvalidInitialization","inputs":[]},{"type":"error","name":"NotInitializing","inputs":[]},{"type":"error","name":"OwnableInvalidOwner","inputs":[{"name":"owner","type":"address","internalType":"address"}]},{"type":"error","name":"OwnableUnauthorizedAccount","inputs":[{"name":"account","type":"address","internalType":"address"}]},{"type":"error","name":"ReentrancyGuardReentrantCall","inputs":[]},{"type":"error","name":"SafeERC20FailedOperation","inputs":[{"name":"token","type":"address","internalType":"address"}]},{"type":"error","name":"UUPSUnauthorizedCallContext","inputs":[]},{"type":"error","name":"UUPSUnsupportedProxiableUUID","inputs":[{"name":"slot","type":"bytes32","internalType":"bytes32"}]}],"bytecode":{"object":"0x60a080604052346100c257306080525f516020611b5f5f395f51905f525460ff8160401c166100b3576002600160401b03196001600160401b03821601610060575b604051611a9890816100c78239608051818181610f1d0152610fe90152f35b6001600160401b0319166001600160401b039081175f516020611b5f5f395f51905f525581527fc7f505b2f371ae2175ee4913f4499e1f2633a7b5936321eed1cdaeb6115181d290602090a15f80610041565b63f92ee8a960e01b5f5260045ffd5b5f80fdfe6080604052600436101561001a575b3615610018575f80fd5b005b5f5f3560e01c806306d6fca4146112055780632983c4b81461118d5780632b1eaf29146111655780634f1ef28614610f7157806352d1902d14610f0b578063714c0e6614610de0578063715018a614610d7957806375d7232614610d5c5780637949edc914610d3e57806379551f0e14610d235780638da5cb5b14610cef5780638f79306e14610bef578063a0c62e091461064c578063a51254211461058e578063ad3cb1cc14610532578063cb6bb006146104e4578063cf120c6a1461048e578063dae4cf7614610467578063ee22fd6f146103ed578063f2fde38b146103c5578063f7013ef6146101425763f98d06f014610117575061000e565b3461013f578060031936011261013f576002546040516001600160a01b039091168152602090f35b80fd5b503461013f5760a036600319011261013f5761015c611264565b6024356001600160a01b038116908190036103c1576044356001600160a01b038116908190036103bd576064356001600160a01b03811691908290036103b957608435925f516020611a435f395f51905f52549460ff8660401c16159567ffffffffffffffff8116801590816103b1575b60011490816103a7575b15908161039e575b5061038f5767ffffffffffffffff1981166001175f516020611a435f395f51905f525586610363575b506001600160a01b0381161561032e5781156102f1576102589061022d841515611537565b61023885151561134e565b61024386151561130a565b61024b61194b565b61025361194b565b61157a565b6001600160601b0360a01b8654161785556001600160601b0360a01b60025416176002556001600160601b0360a01b60015416176001556003556102995780f35b68ff0000000000000000195f516020611a435f395f51905f5254165f516020611a435f395f51905f52557fc7f505b2f371ae2175ee4913f4499e1f2633a7b5936321eed1cdaeb6115181d2602060405160018152a180f35b60405162461bcd60e51b815260206004820152601560248201527424b73b30b634b21029aa2920aa20ac103a37b5b2b760591b6044820152606490fd5b60405162461bcd60e51b815260206004820152600d60248201526c24b73b30b634b21037bbb732b960991b6044820152606490fd5b68ffffffffffffffffff191668010000000000000001175f516020611a435f395f51905f52555f610208565b63f92ee8a960e01b8852600488fd5b9050155f6101df565b303b1591506101d7565b8891506101cd565b8480fd5b8380fd5b8280fd5b503461013f57602036600319011261013f576103ea6103e2611264565b6102536115eb565b80f35b503461013f57602036600319011261013f57610407611264565b61040f6115eb565b6001600160a01b0316610423811515611537565b600280546001600160a01b0319811683179091556001600160a01b03167f4de753730bc14f8af4de0441d3ba572c5feb1dc4013d32c5072eedd55fb058b18380a380f35b503461013f578060031936011261013f57546040516001600160a01b039091168152602090f35b503461013f57602036600319011261013f576060906040906001600160a01b036104b6611264565b16815260046020522060ff815416906002600182015491015490604051921515835260208301526040820152f35b503461013f57604036600319011261013f576103ea610501611264565b6105096115eb565b61051d6001600160a01b038216151561134e565b825460243591906001600160a01b03166118ca565b503461013f578060031936011261013f576040805161055182826112aa565b6005815260208101640352e302e360dc1b81528251938492602084525180928160208601528585015e828201840152601f01601f19168101030190f35b503461013f57602036600319011261013f576105a8611264565b6105b06115eb565b6001600160a01b03168082526004602052604082205460ff161561060f5780825260046020528160026040822082815582600182015501557f85a3e72f8dd6db3794f93109c3c5f5b79d6112f6979431c45f98b26134b42af28280a280f35b60405162461bcd60e51b8152602060048201526015602482015274151bdad95b881b9bdd081dda1a5d195b1a5cdd1959605a1b6044820152606490fd5b506080366003190112610a1857610661611264565b602435916064359167ffffffffffffffff8311610a185736602384011215610a185782600401359067ffffffffffffffff8211610a18576024840193602436918460051b010111610a18577f9b779b17422d0df92223018b32b4d1fa46e071723d6817e2486d003becc55f005c610be05760017f9b779b17422d0df92223018b32b4d1fa46e071723d6817e2486d003becc55f005d61070185151561138e565b60018060a01b03811691825f52600460205260405f2090604051906107258261127a565b61074f60ff84541615158084526040600260018701549660208701978852015494019384526113d3565b5f9681610ab9575b50506002549151905160405163052571af60e51b81526004810192909252602482015290608090829060449082906001600160a01b03165afa908115610aae57916107bc6107c49288948791610a7f575b506040815160070b91015160030b9061164f565b968791611790565b936044358510610a2f5783546040516370a0823160e01b815230600482015290602090829060249082906001600160a01b03165afa908115610a245790869186916109eb575b50106109a6576001546040516323b872dd60e01b8652336004526001600160a01b03909116602452604483905260208560648180885af1906001865114821615610985575b604052846060521561097157835461087390869033906001600160a01b03166118ca565b8034116108df575b50602094604051918252858201528360408201527f377aadedb6b2a771959584d10a6a36eccb5f56b4eb3a48525f76108d2660d8d460603392a37f9b779b17422d0df92223018b32b4d1fa46e071723d6817e2486d003becc55f005d604051908152f35b340334811161095d578380808093335af13d15610958573d610900816112cc565b9061090e60405192836112aa565b81528460203d92013e5b15610923575f61087b565b60405162461bcd60e51b815260206004820152600d60248201526c1499599d5b990819985a5b1959609a1b6044820152606490fd5b610918565b634e487b7160e01b84526011600452602484fd5b635274afe760e01b84526004839052602484fd5b90600181151661099d57843b15153d1516169061084f565b503d85823e3d90fd5b60405162461bcd60e51b815260206004820152601b60248201527f496e73756666696369656e742073616c6520696e76656e746f727900000000006044820152606490fd5b9150506020813d602011610a1c575b81610a07602093836112aa565b81010312610a18578590515f61080a565b5f80fd5b3d91506109fa565b6040513d87823e3d90fd5b60405162461bcd60e51b815260206004820152602260248201527f536c6970706167653a20696e73756666696369656e742053545241544158206f6044820152611d5d60f21b6064820152608490fd5b610aa1915060803d608011610aa7575b610a9981836112aa565b81019061141f565b5f6107a8565b503d610a8f565b6040513d86823e3d90fd5b60025460405163d47eed4560e01b81526001600160a01b039091169850909160208280610aea848760048401611493565b03818c5afa918215610b5c575f92610bac575b508198823410610b6757803b15610a1857604051631df3cbc560e31b8152935f93859384928391610b319160048401611493565b03925af18015610b5c57610b46575b80610757565b610b539195505f906112aa565b5f936080610b40565b6040513d5f823e3d90fd5b60405162461bcd60e51b815260206004820152601760248201527f496e73756666696369656e7420757064617465206665650000000000000000006044820152606490fd5b9091506020813d602011610bd8575b81610bc8602093836112aa565b81010312610a185751905f610afd565b3d9150610bbb565b633ee5aeb560e01b5f5260045ffd5b34610a18576040366003190112610a1857610c08611264565b602435610c1681151561138e565b60018060a01b0382165f52600460205260405f20916080604051610c398161127a565b610c6360ff86541615158083526040600260018901549860208601998a52015493019283526113d3565b6002549451905160405163052571af60e51b81526004810192909252602482015293849060449082906001600160a01b03165afa918215610b5c57610cc2610cc8936020955f91610cd057506040815160070b91015160030b9061164f565b91611790565b604051908152f35b610ce9915060803d608011610aa757610a9981836112aa565b866107a8565b34610a18575f366003190112610a18575f516020611a035f395f51905f52546040516001600160a01b039091168152602090f35b34610a18575f366003190112610a1857602060405160088152f35b34610a18575f366003190112610a185760206040516305f5e1008152f35b34610a18575f366003190112610a18576020600354604051908152f35b34610a18575f366003190112610a1857610d916115eb565b5f516020611a035f395f51905f5280546001600160a01b031981169091555f906001600160a01b03167f8be0079c531659141344cd1fd0a4f28419497f9722a3daafe3b4186f6b6457e08280a3005b34610a18576060366003190112610a1857610df9611264565b6024359060443590610e096115eb565b6001600160a01b0316908115610ece578015610e915760207f8581854281cc6daf8b4fbd9198d2338b2ec05a0d640b3ff030339744611d939591604051610e4f8161127a565b6001815260028382018781526040830190848252875f526004865260405f209351151560ff8019865416911617845551600184015551910155604051908152a3005b60405162461bcd60e51b8152602060048201526015602482015274496e76616c6964206d61782070726963652061676560581b6044820152606490fd5b60405162461bcd60e51b815260206004820152601560248201527424b73b30b634b2103830bcb6b2b73a103a37b5b2b760591b6044820152606490fd5b34610a18575f366003190112610a18577f00000000000000000000000000000000000000000000000000000000000000006001600160a01b03163003610f625760206040515f516020611a235f395f51905f528152f35b63703e46dd60e11b5f5260045ffd5b6040366003190112610a1857610f85611264565b6024359067ffffffffffffffff8211610a185736602383011215610a18578160040135610fb1816112cc565b92610fbf60405194856112aa565b8184523660248383010111610a1857815f9260246020930183870137840101526001600160a01b037f000000000000000000000000000000000000000000000000000000000000000016308114908115611143575b50610f62576110216115eb565b6040516352d1902d60e01b81526001600160a01b0382169290602081600481875afa5f918161110f575b506110635783634c9c8ce360e01b5f5260045260245ffd5b805f516020611a235f395f51905f528592036110fd5750823b156110eb575f516020611a235f395f51905f5280546001600160a01b031916821790557fbc7cd75a20ee27fd9adebab32041f755214dbc6bffa90cc0225b39da2e5c2d3b5f80a28051156110d35761001891611976565b5050346110dc57005b63b398979f60e01b5f5260045ffd5b634c9c8ce360e01b5f5260045260245ffd5b632a87526960e21b5f5260045260245ffd5b9091506020813d60201161113b575b8161112b602093836112aa565b81010312610a185751908561104b565b3d915061111e565b5f516020611a235f395f51905f52546001600160a01b03161415905083611014565b34610a18575f366003190112610a18576001546040516001600160a01b039091168152602090f35b34610a18576020366003190112610a18576111a6611264565b6111ae6115eb565b6001600160a01b03166111c281151561134e565b600180546001600160a01b0319811683179091556001600160a01b03167faf0e532fb53d8550245c2f27684f1093ea619aa11090123a8bc0a2012b3ebcd35f80a3005b34610a18576020366003190112610a18577f229f17c7970e97823656fac295de0fcc092d62a0cd552515cdae0fad4faf126e60406004356112446115eb565b61124f81151561130a565b600354908060035582519182526020820152a1005b600435906001600160a01b0382168203610a1857565b6060810190811067ffffffffffffffff82111761129657604052565b634e487b7160e01b5f52604160045260245ffd5b90601f8019910116810190811067ffffffffffffffff82111761129657604052565b67ffffffffffffffff811161129657601f01601f191660200190565b604d81116112f657600a0a90565b634e487b7160e01b5f52601160045260245ffd5b1561131157565b60405162461bcd60e51b8152602060048201526015602482015274496e76616c6964205354524154415820707269636560581b6044820152606490fd5b1561135557565b60405162461bcd60e51b8152602060048201526011602482015270125b9d985b1a59081c9958da5c1a595b9d607a1b6044820152606490fd5b1561139557565b60405162461bcd60e51b8152602060048201526016602482015275125b9d985b1a59081c185e5b595b9d08185b5bdd5b9d60521b6044820152606490fd5b156113da57565b60405162461bcd60e51b815260206004820152601d60248201527f5061796d656e7420746f6b656e206e6f742077686974656c69737465640000006044820152606490fd5b90816080910312610a1857604051906080820182811067ffffffffffffffff8211176112965760405280518060070b8103610a18578252602081015167ffffffffffffffff81168103610a185760208301526040810151908160030b8203610a185760609160408401520151606082015290565b9180602084016020855252604083019060408160051b85010193835f91601e1982360301905b8484106114ca575050505050505090565b90919293949596603f19828203018752873583811215610a18578401906020823592019167ffffffffffffffff8111610a18578036038313610a18576020828280600196849695859652848401375f828201840152601f01601f19160101990197019594019291906114b9565b1561153e57565b60405162461bcd60e51b8152602060048201526014602482015273496e76616c69642050797468206164647265737360601b6044820152606490fd5b6001600160a01b031680156115d8575f516020611a035f395f51905f5280546001600160a01b0319811683179091556001600160a01b03167f8be0079c531659141344cd1fd0a4f28419497f9722a3daafe3b4186f6b6457e05f80a3565b631e4fbdf760e01b5f525f60045260245ffd5b5f516020611a035f395f51905f52546001600160a01b0316330361160b57565b63118cdaa760e01b5f523360045260245ffd5b818102929181159184041417156112f657565b811561163b570490565b634e487b7160e01b5f52601260045260245ffd5b60070b905f82131561172c5760030b905f82121561171357600160ff1b82146112f657815f0391600883115f146116ee575060071982019182116112f65761169961169f926112e8565b90611631565b905b81156116a957565b60405162461bcd60e51b815260206004820152601860248201527f4e6f726d616c697a6564207072696365206973207a65726f00000000000000006044820152606490fd5b6008908101925082116112f65761170761170d926112e8565b9061161e565b906116a1565b9060080190816008116112f65761170761170d926112e8565b60405162461bcd60e51b8152602060048201526012602482015271496e76616c6964205079746820707269636560701b6044820152606490fd5b90816020910312610a18575160ff81168103610a185790565b60ff16604d81116112f657600a0a90565b60405163313ce56760e01b8152919290602090839060049082906001600160a01b03165afa908115610b5c576004925f926118a9575b505f5460405163313ce56760e01b81529360209185919082906001600160a01b03165afa928315610b5c575f9361186c575b5061180a61169991611810949561161e565b9161177f565b90811561183357611830916117076118279261177f565b60035490611631565b90565b60405162461bcd60e51b815260206004820152601160248201527014185e5b595b9d081d1bdbc81cdb585b1b607a1b6044820152606490fd5b61181093506116999161189961180a9260203d6020116118a2575b61189181836112aa565b810190611766565b945091506117f8565b503d611887565b6118c391925060203d6020116118a25761189181836112aa565b905f6117c6565b916040519163a9059cbb60e01b5f5260018060a01b031660045260245260205f60448180865af19060015f511482161561192a575b6040521561190a5750565b635274afe760e01b5f9081526001600160a01b0391909116600452602490fd5b90600181151661194257823b15153d151616906118ff565b503d5f823e3d90fd5b60ff5f516020611a435f395f51905f525460401c161561196757565b631afcd79f60e31b5f5260045ffd5b905f8091602081519101845af480806119ef575b156119aa5750506040513d81523d5f602083013e60203d82010160405290565b156119cf57639996b31560e01b5f9081526001600160a01b0391909116600452602490fd5b3d156119e0576040513d5f823e3d90fd5b63d6bda27560e01b5f5260045ffd5b503d15158061198a5750813b151561198a56fe9016d09d72d40fdae2fd8ceac6b6234c7706214fd39c1cd1e609a0528c199300360894a13ba1a3210667c828492db98dca3e2076cc3735a920a3ca505d382bbcf0c57e16840df040f15088dc2f81fe391c3923bec73e23a9662efc9c229c6a00a26469706673582212209bac4529e9e3543418f32b593a5c8454699c40ab154875c4eb1cb5e34648fbdb64736f6c634300081e0033f0c57e16840df040f15088dc2f81fe391c3923bec73e23a9662efc9c229c6a00","linkReferences":{}},"methodIdentifiers":{"UPGRADE_INTERFACE_VERSION()":"ad3cb1cc","USD_PRICE_DECIMALS()":"79551f0e","USD_PRICE_PRECISION()":"7949edc9","buy(address,uint256,uint256,bytes[])":"a0c62e09","initialize(address,address,address,address,uint256)":"f7013ef6","owner()":"8da5cb5b","paymentRecipient()":"2b1eaf29","paymentTokenConfigs(address)":"cf120c6a","proxiableUUID()":"52d1902d","pyth()":"f98d06f0","quote(address,uint256)":"8f79306e","removePaymentToken(address)":"a5125421","renounceOwnership()":"715018a6","setPaymentRecipient(address)":"2983c4b8","setPyth(address)":"ee22fd6f","setStrataxPriceUsd(uint256)":"06d6fca4","strataxPriceUsd()":"75d72326","strataxToken()":"dae4cf76","transferOwnership(address)":"f2fde38b","upgradeToAndCall(address,bytes)":"4f1ef286","whitelistPaymentToken(address,bytes32,uint256)":"714c0e66","withdrawUnsoldTokens(address,uint256)":"cb6bb006"},"id":23}