{"abi":[{"type":"function","name":"VARIABLE_DEBT","inputs":[],"outputs":[{"name":"","type":"uint256","internalType":"uint256"}],"stateMutability":"view"},{"type":"function","name":"aaveDataProvider","inputs":[],"outputs":[{"name":"","type":"address","internalType":"contract IProtocolDataProvider"}],"stateMutability":"view"},{"type":"function","name":"aavePool","inputs":[],"outputs":[{"name":"","type":"address","internalType":"contract IPool"}],"stateMutability":"view"},{"type":"function","name":"borrowDebtToken","inputs":[{"name":"_amount","type":"uint256","internalType":"uint256"}],"outputs":[],"stateMutability":"nonpayable"},{"type":"function","name":"borrowSafetyMargin","inputs":[],"outputs":[{"name":"","type":"uint256","internalType":"uint256"}],"stateMutability":"view"},{"type":"function","name":"borrowToken","inputs":[],"outputs":[{"name":"","type":"address","internalType":"address"}],"stateMutability":"view"},{"type":"function","name":"borrowTokenDecimals","inputs":[],"outputs":[{"name":"","type":"uint256","internalType":"uint256"}],"stateMutability":"view"},{"type":"function","name":"burnPosition","inputs":[{"name":"newOwner","type":"address","internalType":"address"}],"outputs":[],"stateMutability":"nonpayable"},{"type":"function","name":"burnedTokenOwner","inputs":[],"outputs":[{"name":"","type":"address","internalType":"address"}],"stateMutability":"view"},{"type":"function","name":"calculateDesiredLeverage","inputs":[{"name":"_flashLoanAmount","type":"uint256","internalType":"uint256"},{"name":"_collateralAmount","type":"uint256","internalType":"uint256"}],"outputs":[{"name":"desiredLeverage","type":"uint256","internalType":"uint256"}],"stateMutability":"nonpayable"},{"type":"function","name":"calculateOpenParams","inputs":[{"name":"_params","type":"tuple","internalType":"struct Stratax.CalcOpenParams","components":[{"name":"desiredLeverage","type":"uint256","internalType":"uint256"},{"name":"collateralAmount","type":"uint256","internalType":"uint256"},{"name":"collateralTokenPrice","type":"uint256","internalType":"uint256"},{"name":"borrowTokenPrice","type":"uint256","internalType":"uint256"}]}],"outputs":[{"name":"flashLoanAmount","type":"uint256","internalType":"uint256"},{"name":"borrowAmount","type":"uint256","internalType":"uint256"}],"stateMutability":"nonpayable"},{"type":"function","name":"calculateUnwindParams","inputs":[{"name":"_debtToRepay","type":"uint256","internalType":"uint256"}],"outputs":[{"name":"collateralToWithdraw","type":"uint256","internalType":"uint256"},{"name":"debtAmount","type":"uint256","internalType":"uint256"},{"name":"strataxFee","type":"uint256","internalType":"uint256"}],"stateMutability":"view"},{"type":"function","name":"collateralToken","inputs":[],"outputs":[{"name":"","type":"address","internalType":"address"}],"stateMutability":"view"},{"type":"function","name":"collateralTokenDecimals","inputs":[],"outputs":[{"name":"","type":"uint256","internalType":"uint256"}],"stateMutability":"view"},{"type":"function","name":"createLeveragedPosition","inputs":[{"name":"_flashLoanAmount","type":"uint256","internalType":"uint256"},{"name":"_collateralAmount","type":"uint256","internalType":"uint256"},{"name":"_borrowAmount","type":"uint256","internalType":"uint256"},{"name":"_oneInchSwapData","type":"bytes","internalType":"bytes"},{"name":"_minReturnAmount","type":"uint256","internalType":"uint256"}],"outputs":[],"stateMutability":"nonpayable"},{"type":"function","name":"executeOperation","inputs":[{"name":"_asset","type":"address","internalType":"address"},{"name":"_amount","type":"uint256","internalType":"uint256"},{"name":"_premium","type":"uint256","internalType":"uint256"},{"name":"_initiator","type":"address","internalType":"address"},{"name":"_params","type":"bytes","internalType":"bytes"}],"outputs":[{"name":"","type":"bool","internalType":"bool"}],"stateMutability":"nonpayable"},{"type":"function","name":"feeCollector","inputs":[],"outputs":[{"name":"","type":"address","internalType":"address"}],"stateMutability":"view"},{"type":"function","name":"flashLoanFeeBps","inputs":[],"outputs":[{"name":"","type":"uint256","internalType":"uint256"}],"stateMutability":"view"},{"type":"function","name":"getBorrowTokenAddress","inputs":[],"outputs":[{"name":"","type":"address","internalType":"address"}],"stateMutability":"view"},{"type":"function","name":"getCollateralTokenAddress","inputs":[],"outputs":[{"name":"","type":"address","internalType":"address"}],"stateMutability":"view"},{"type":"function","name":"getCurrentLeverage","inputs":[],"outputs":[{"name":"currentLeverage","type":"uint256","internalType":"uint256"}],"stateMutability":"view"},{"type":"function","name":"getFreeCollateral","inputs":[{"name":"_collateralTokenPrice","type":"uint256","internalType":"uint256"},{"name":"_borrowTokenPrice","type":"uint256","internalType":"uint256"},{"name":"_ltv","type":"uint256","internalType":"uint256"}],"outputs":[{"name":"","type":"uint256","internalType":"uint256"}],"stateMutability":"view"},{"type":"function","name":"getFreeCollateral","inputs":[],"outputs":[{"name":"","type":"uint256","internalType":"uint256"}],"stateMutability":"view"},{"type":"function","name":"getMaxAchievableLeverageBinary","inputs":[],"outputs":[{"name":"maxLeverage","type":"uint256","internalType":"uint256"}],"stateMutability":"view"},{"type":"function","name":"getMaxLeverage","inputs":[],"outputs":[{"name":"maxLeverage","type":"uint256","internalType":"uint256"}],"stateMutability":"view"},{"type":"function","name":"getMaxLeverage","inputs":[{"name":"_ltv","type":"uint256","internalType":"uint256"}],"outputs":[{"name":"maxLeverage","type":"uint256","internalType":"uint256"}],"stateMutability":"pure"},{"type":"function","name":"getPositionUsdValue","inputs":[],"outputs":[{"name":"positionValueUsd","type":"uint256","internalType":"uint256"}],"stateMutability":"view"},{"type":"function","name":"initialize","inputs":[{"name":"params","type":"tuple","internalType":"struct Stratax.StrataxInitParams","components":[{"name":"aavePool","type":"address","internalType":"address"},{"name":"aaveDataProvider","type":"address","internalType":"address"},{"name":"oneInchRouter","type":"address","internalType":"address"},{"name":"strataxPositionNft","type":"address","internalType":"address"},{"name":"tokenId","type":"uint256","internalType":"uint256"},{"name":"collateralToken","type":"address","internalType":"address"},{"name":"borrowToken","type":"address","internalType":"address"},{"name":"strataxOracle","type":"address","internalType":"address"},{"name":"feeCollector","type":"address","internalType":"address"},{"name":"borrowSafetyMargin","type":"uint256","internalType":"uint256"},{"name":"maxLeverageOffset","type":"uint256","internalType":"uint256"}]}],"outputs":[],"stateMutability":"nonpayable"},{"type":"function","name":"isBurned","inputs":[],"outputs":[{"name":"","type":"bool","internalType":"bool"}],"stateMutability":"view"},{"type":"function","name":"isLeverageSafe","inputs":[{"name":"_leverage","type":"uint256","internalType":"uint256"},{"name":"_effectiveLtv","type":"uint256","internalType":"uint256"},{"name":"_strataxFee","type":"uint256","internalType":"uint256"}],"outputs":[{"name":"","type":"bool","internalType":"bool"}],"stateMutability":"view"},{"type":"function","name":"maxLeverageOffset","inputs":[],"outputs":[{"name":"","type":"uint256","internalType":"uint256"}],"stateMutability":"view"},{"type":"function","name":"oneInchRouter","inputs":[],"outputs":[{"name":"","type":"address","internalType":"contract IAggregationRouter"}],"stateMutability":"view"},{"type":"function","name":"owner","inputs":[],"outputs":[{"name":"","type":"address","internalType":"address"}],"stateMutability":"view"},{"type":"function","name":"recoverTokens","inputs":[{"name":"_token","type":"address","internalType":"address"},{"name":"_amount","type":"uint256","internalType":"uint256"}],"outputs":[],"stateMutability":"nonpayable"},{"type":"function","name":"repayDebtToken","inputs":[{"name":"_amount","type":"uint256","internalType":"uint256"}],"outputs":[{"name":"amountRepaid","type":"uint256","internalType":"uint256"}],"stateMutability":"nonpayable"},{"type":"function","name":"strataxOracle","inputs":[],"outputs":[{"name":"","type":"address","internalType":"address"}],"stateMutability":"view"},{"type":"function","name":"strataxPositionNft","inputs":[],"outputs":[{"name":"","type":"address","internalType":"contract IStrataxPositionNft"}],"stateMutability":"view"},{"type":"function","name":"supplyCollateral","inputs":[{"name":"_amount","type":"uint256","internalType":"uint256"}],"outputs":[],"stateMutability":"nonpayable"},{"type":"function","name":"tokenId","inputs":[],"outputs":[{"name":"","type":"uint256","internalType":"uint256"}],"stateMutability":"view"},{"type":"function","name":"unwindPosition","inputs":[{"name":"_collateralToWithdraw","type":"uint256","internalType":"uint256"},{"name":"_debtAmount","type":"uint256","internalType":"uint256"},{"name":"_oneInchSwapData","type":"bytes","internalType":"bytes"},{"name":"_minReturnAmount","type":"uint256","internalType":"uint256"}],"outputs":[],"stateMutability":"nonpayable"},{"type":"function","name":"update1InchRouter","inputs":[{"name":"_newRouter","type":"address","internalType":"address"}],"outputs":[],"stateMutability":"nonpayable"},{"type":"function","name":"updateFlashLoanFee","inputs":[],"outputs":[],"stateMutability":"nonpayable"},{"type":"function","name":"updateMaxLeverageOffset","inputs":[{"name":"_newOffset","type":"uint256","internalType":"uint256"}],"outputs":[],"stateMutability":"nonpayable"},{"type":"function","name":"withdrawCollateral","inputs":[{"name":"_amount","type":"uint256","internalType":"uint256"}],"outputs":[{"name":"amountWithdrawn","type":"uint256","internalType":"uint256"}],"stateMutability":"nonpayable"},{"type":"event","name":"BorrowSafetyMarginUpdated","inputs":[{"name":"newMargin","type":"uint256","indexed":false,"internalType":"uint256"},{"name":"oldMargin","type":"uint256","indexed":false,"internalType":"uint256"}],"anonymous":false},{"type":"event","name":"CollateralSupplied","inputs":[{"name":"user","type":"address","indexed":true,"internalType":"address"},{"name":"collateralToken","type":"address","indexed":false,"internalType":"address"},{"name":"amount","type":"uint256","indexed":false,"internalType":"uint256"},{"name":"healthFactor","type":"uint256","indexed":false,"internalType":"uint256"}],"anonymous":false},{"type":"event","name":"CollateralWithdrawn","inputs":[{"name":"user","type":"address","indexed":true,"internalType":"address"},{"name":"collateralToken","type":"address","indexed":false,"internalType":"address"},{"name":"amount","type":"uint256","indexed":false,"internalType":"uint256"},{"name":"healthFactor","type":"uint256","indexed":false,"internalType":"uint256"}],"anonymous":false},{"type":"event","name":"DEBUG","inputs":[{"name":"value","type":"uint256","indexed":false,"internalType":"uint256"},{"name":"description","type":"string","indexed":false,"internalType":"string"}],"anonymous":false},{"type":"event","name":"EmergencyWithdrawal","inputs":[{"name":"user","type":"address","indexed":true,"internalType":"address"},{"name":"token","type":"address","indexed":false,"internalType":"address"},{"name":"amount","type":"uint256","indexed":false,"internalType":"uint256"}],"anonymous":false},{"type":"event","name":"FlashLoanFeeUpdated","inputs":[{"name":"newFeeBps","type":"uint256","indexed":false,"internalType":"uint256"},{"name":"oldFeeBps","type":"uint256","indexed":false,"internalType":"uint256"}],"anonymous":false},{"type":"event","name":"Initialized","inputs":[{"name":"version","type":"uint64","indexed":false,"internalType":"uint64"}],"anonymous":false},{"type":"event","name":"LeveragePositionCreated","inputs":[{"name":"user","type":"address","indexed":true,"internalType":"address"},{"name":"collateralToken","type":"address","indexed":false,"internalType":"address"},{"name":"borrowedToken","type":"address","indexed":false,"internalType":"address"},{"name":"totalCollateralSupplied","type":"uint256","indexed":false,"internalType":"uint256"},{"name":"borrowedAmount","type":"uint256","indexed":false,"internalType":"uint256"}],"anonymous":false},{"type":"event","name":"MaxLeverageOffsetUpdated","inputs":[{"name":"newOffset","type":"uint256","indexed":false,"internalType":"uint256"},{"name":"oldOffset","type":"uint256","indexed":false,"internalType":"uint256"}],"anonymous":false},{"type":"event","name":"OneInchRouterUpdated","inputs":[{"name":"newRouter","type":"address","indexed":false,"internalType":"address"},{"name":"oldRouter","type":"address","indexed":false,"internalType":"address"}],"anonymous":false},{"type":"event","name":"PositionBurned","inputs":[{"name":"user","type":"address","indexed":true,"internalType":"address"},{"name":"tokenId","type":"uint256","indexed":false,"internalType":"uint256"}],"anonymous":false},{"type":"event","name":"PositionClosed","inputs":[{"name":"user","type":"address","indexed":true,"internalType":"address"}],"anonymous":false},{"type":"event","name":"PositionHealthUpdated","inputs":[{"name":"user","type":"address","indexed":true,"internalType":"address"},{"name":"healthFactor","type":"uint256","indexed":false,"internalType":"uint256"}],"anonymous":false},{"type":"event","name":"PositionPartiallyIncreased","inputs":[{"name":"user","type":"address","indexed":true,"internalType":"address"},{"name":"collateralToken","type":"address","indexed":false,"internalType":"address"},{"name":"borrowedToken","type":"address","indexed":false,"internalType":"address"},{"name":"additionalCollateralSupplied","type":"uint256","indexed":false,"internalType":"uint256"},{"name":"additionalBorrowedAmount","type":"uint256","indexed":false,"internalType":"uint256"}],"anonymous":false},{"type":"event","name":"PositionPartiallyUnwound","inputs":[{"name":"user","type":"address","indexed":true,"internalType":"address"},{"name":"collateralToken","type":"address","indexed":false,"internalType":"address"},{"name":"debtToken","type":"address","indexed":false,"internalType":"address"},{"name":"debtRepaid","type":"uint256","indexed":false,"internalType":"uint256"},{"name":"collateralReturned","type":"uint256","indexed":false,"internalType":"uint256"}],"anonymous":false},{"type":"event","name":"PositionUnwound","inputs":[{"name":"user","type":"address","indexed":true,"internalType":"address"},{"name":"collateralToken","type":"address","indexed":false,"internalType":"address"},{"name":"debtToken","type":"address","indexed":false,"internalType":"address"},{"name":"debtRepaid","type":"uint256","indexed":false,"internalType":"uint256"},{"name":"collateralReturned","type":"uint256","indexed":false,"internalType":"uint256"}],"anonymous":false},{"type":"error","name":"InvalidInitialization","inputs":[]},{"type":"error","name":"NotInitializing","inputs":[]},{"type":"error","name":"ReentrancyGuardReentrantCall","inputs":[]},{"type":"error","name":"SafeERC20FailedOperation","inputs":[{"name":"token","type":"address","internalType":"address"}]}],"bytecode":{"object":"0x608080604052346015576152fd908161001a8239f35b5f80fdfe6080806040526004361015610012575f80fd5b5f905f3560e01c908163069c9fae14612f04575080630ea8b3bf14612e73578063172051bd14612c8657806317d70f7c14612c695780631903d02514611e7f5780631b11d0ff14612b7c5780632a83fd84146127825780632d673c8a146126015780632f78e5781461231d578063367febea146121005780633c32572914611ecc57806345487a4714611ea8578063456dc17a14611e7f57806347525c8414611e5657806351663c2a14611e3c5780635bfb92ce14611e215780636112fe2e14611bc55780636273aae814611ba657806364538a29146119dd5780636b6d2603146119bf5780636d483fe614610b635780636eed77ab146119925780636f187417146118145780637763e24e1461114257806378f5ffbc14610ff05780637c60785514610d235780637f4225e114610cf957806383d011bc14610cd05780638da5cb5b14610c2557806393e2856514610c07578063a03e4bc314610bde578063a4f4acc514610bb5578063ac3af20814610b8c578063b2016bd414610b63578063b2eb21351461099f578063b54790d814610981578063c0c7347e14610963578063c34da17c14610940578063c415b95c14610917578063cf6611461461073a578063d305536f146105c2578063d6a90c06146105a6578063d7d58156146102225763e579b96314610202575f80fd5b3461021f578060031936011261021f576020600b54604051908152f35b80fd5b503461021f5760a036600319011261021f576024356064356001600160401b0381116105a2576102569036906004016130c9565b60015491929160ff811690811561050f57610281903360089190911c6001600160a01b03161461318f565b6104b7576008546040516370a0823160e01b81523060048201528594916001600160a01b0316602082602481845afa9182156104ac578692610471575b50816103e3575b50508261031861035592610347956103c3575b60018060a01b03600854169460018060a01b0360095416604051946102fc86613110565b8786526020860152604085015260443560608501523691613322565b608082015260843560a0820152604051938491866020840152336040840152606080840152608083019061337c565b03601f19810184528361315a565b6005546001600160a01b031691823b156103be57610391928492836040518096819582946310ac2ddf60e21b84526004359030600486016133d4565b03925af180156103b3576103a25750f35b816103ac9161315a565b61021f5780f35b6040513d84823e3d90fd5b505050fd5b6008546103de908490309033906001600160a01b0316614941565b6102d8565b6005546103fb9183916001600160a01b0316906149aa565b6005546008546001600160a01b03918216929116823b1561046d5761043b9287928360405180968195829463617ba03760e01b84523091600485016142de565b03925af1908115610462578591156102c557816104579161315a565b6103be57835f6102c5565b6040513d87823e3d90fd5b8680fd5b955090506020853d6020116104a4575b8161048e6020938361315a565b810103126104a057859451905f6102be565b5f80fd5b3d9150610481565b6040513d88823e3d90fd5b60405162461bcd60e51b815260206004820152602a60248201527f506f736974696f6e206973206275726e65642c206f6e6c7920756e77696e64696044820152691b99c8185b1b1bddd95960b21b6064820152608490fd5b506004805486546040516331a9108f60e11b815292830152602090829060249082906001600160a01b03165afa80156104ac578690610563575b61055e91506001600160a01b0316331461318f565b610281565b506020813d60201161059a575b8161057d6020938361315a565b810103126105965761059161055e9161317b565b610549565b8580fd5b3d9150610570565b8280fd5b503461021f578060031936011261021f57602060405160028152f35b503461021f57602036600319011261021f576105dc61309f565b60015460ff8116156106a057610602903360089190911c6001600160a01b03161461318f565b6001600160a01b0316801561066257600780546001600160a01b031981168317909155604080519283526001600160a01b0390911660208301527fe55c805087fd4900647a747e63b71097d562f78f0c742bae8cde841b302d664d91a180f35b60405162461bcd60e51b8152602060048201526016602482015275496e76616c696420726f75746572206164647265737360501b6044820152606490fd5b506004805483546040516331a9108f60e11b815292830152602090829060249082906001600160a01b03165afa801561072f5783906106f4575b6106ef91506001600160a01b0316331461318f565b610602565b506020813d602011610727575b8161070e6020938361315a565b810103126105a2576107226106ef9161317b565b6106da565b3d9150610701565b6040513d85823e3d90fd5b503461021f57602036600319011261021f5761075461309f565b60015460ff8116156108885761077a903360089190911c6001600160a01b03161461318f565b8160018060a01b0360045416815460405163eb02c30160e01b815281600482015260a081602481865afa801561087d57610850575b50813b156105a2578291602483926040519485938492630852cd8d60e31b845260048401525af180156103b357610837575b50600180546001600160a81b031916600884901b610100600160a81b03161781179055805460405190815233907fed74d7b7c481ed25046eda5ec37f1b67b45270d8db43f82d1d85c3b04933bb5490602090a280f35b816108419161315a565b61084c57815f6107e1565b5080fd5b6108719060a03d60a011610876575b610869818361315a565b8101906131d4565b6107af565b503d61085f565b6040513d86823e3d90fd5b506004805483546040516331a9108f60e11b815292830152602090829060249082906001600160a01b03165afa801561072f5783906108dc575b6108d791506001600160a01b0316331461318f565b61077a565b506020813d60201161090f575b816108f66020938361315a565b810103126105a25761090a6108d79161317b565b6108c2565b3d91506108e9565b503461021f578060031936011261021f57600d546040516001600160a01b039091168152602090f35b503461021f578060031936011261021f57602060ff600154166040519015158152f35b503461021f578060031936011261021f576020600e54604051908152f35b503461021f578060031936011261021f576020600a54604051908152f35b503461021f578060031936011261021f57600654600854604051633e15014160e01b81526001600160a01b039182166004820152916101409183916024918391165afa9081156103b3578291610b2a575b506109fc811515614712565b612710610a17610a1160025460035490614286565b83614238565b0491610a2483151561475e565b600d546040516375c6976360e01b815290602090829060049082906001600160a01b03165afa9081156103b3578291610af8575b509190610a6761271092614666565b9282935b80841115610a7e57602085604051908152f35b90919293610a98610a8f8684614286565b60011c86614705565b94610aa4848888614a9f565b15610ad557505060018401808511610ac157905b92919092610a6b565b634e487b7160e01b84526011600452602484fd5b9150935f19810190811115610ab857634e487b7160e01b84526011600452602484fd5b90506020813d602011610b22575b81610b136020938361315a565b810103126104a057515f610a58565b3d9150610b06565b610b4c91506101403d8111610b5c575b610b44818361315a565b81019061324f565b505050505050505090505f6109f0565b503d610b3a565b503461021f578060031936011261021f576008546040516001600160a01b039091168152602090f35b503461021f578060031936011261021f576007546040516001600160a01b039091168152602090f35b503461021f578060031936011261021f576006546040516001600160a01b039091168152602090f35b503461021f578060031936011261021f576005546040516001600160a01b039091168152602090f35b503461021f578060031936011261021f576020600254604051908152f35b503461021f578060031936011261021f576004805482546040516331a9108f60e11b815292830152909190602090839060249082906001600160a01b03165afa908115610cc4578091610c87575b6040516001600160a01b0383168152602090f35b90506020823d602011610cbc575b81610ca26020938361315a565b8101031261021f5750610cb660209161317b565b5f610c73565b3d9150610c95565b604051903d90823e3d90fd5b503461021f578060031936011261021f57600c546040516001600160a01b039091168152602090f35b503461021f57604036600319011261021f576020610d1b602435600435614d25565b604051908152f35b503461021f57602036600319011261021f576006546009546040516334924edb60e21b81526001600160a01b0391821660048281018290523593909260609183916024918391165afa90811561087d576024916020918691610fbe575b506040516370a0823160e01b815230600482015292839182906001600160a01b03165afa90811561087d578491610f8c575b5082811115610f84575b50600c546040516341976e0960e01b815260048101929092526001600160a01b0316602082602481845afa91821561087d578492610f50575b50602060018060a01b03600854166024604051809481936341976e0960e01b835260048301525afa801561087d578490610f1d575b600d546040516375c6976360e01b81529250602090839060049082906001600160a01b03165afa918215610462578592610ee7575b50610eb1610ea5610e9a612710610e79610eb79689614238565b0495610e94612710610e8d600e548b614238565b0489614705565b90614238565b610e94600a5461424b565b91610e94600b5461424b565b9061427c565b9161041a83029280840461041a1490151715610ac157606093506103e86040519304835260208301526040820152f35b91506020823d602011610f15575b81610f026020938361315a565b810103126104a057905190610eb1610e5f565b3d9150610ef5565b506020813d602011610f48575b81610f376020938361315a565b810103126104a05760049051610e2a565b3d9150610f2a565b9091506020813d602011610f7c575b81610f6c6020938361315a565b810103126104a05751905f610df5565b3d9150610f5f565b91505f610dbc565b90506020813d602011610fb6575b81610fa76020938361315a565b810103126104a057515f610db2565b3d9150610f9a565b610fe0915060603d606011610fe9575b610fd8818361315a565b810190614168565b9150505f610d80565b503d610fce565b503461021f57602036600319011261021f5760043560015460ff81165f146110b35761102c903360089190911c6001600160a01b03161461318f565b6101f4811161106e5760407f2d27aad4d7921414ce9157dedd3be44e0d1deec683aaba9dde7386ed229219d7916003548160035582519182526020820152a180f35b60405162461bcd60e51b815260206004820152601c60248201527f4d6178206c65766572616765206f666673657420746f6f2068696768000000006044820152606490fd5b506004805483546040516331a9108f60e11b815292830152602090829060249082906001600160a01b03165afa801561072f578390611107575b61110291506001600160a01b0316331461318f565b61102c565b506020813d60201161113a575b816111216020938361315a565b810103126105a2576111356111029161317b565b6110ed565b3d9150611114565b503461021f57608036600319011261021f576040516111608161313f565b600435815260208101602435815260408201916044358352606081016064358152602460018060a01b036006541661014060018060a01b03600854169160405193848092633e15014160e01b82528560048301525afa9182156117605787926117e9575b506111d08215156132bb565b85511561176b575b508151156116d8575b6004926111fc6111f5838851865190614b56565b8651614705565b809552519451915190600a54600b549060025493600e5495602060018060a01b03600d5416604051998a80926375c6976360e01b82525afa9788156116cd578b98611699575b50600354986040519a6101608c018c81106001600160401b03821117611685576040528b5260208b015260408a01526060890152608088015260a087015260c086015260e08501526101008401526101208301526101408201526040516112a88161313f565b82815282602082015282604082015282606082015260208201511561164757612710825110611609576112e060408301511515614195565b6112ef606083015115156141ec565b6112fe60c083015115156132bb565b60c0820151612710036127108111610ac15761131990614259565b8251116115c55760c082015160e08301519061014084015161271061135e6113586101008801519361012089015196611353871515614712565b614286565b84614238565b049061136b82151561475e565b61137761271093614666565b9383945b8085111561154857505050505080835111611540575b506113ca6305f5e1006113b96113b1602086015161012087015190614238565b855190614238565b048060408401526020840151614286565b825161270f19810190811161152c576114646305f5e100859661145461144961143e61143161142661271061141c8c61010061147b9e9f848f61146f9f61141091614238565b04809352015190614238565b04998c5190614705565b60408d015190614238565b610eb160808d015161424b565b60c08b015190614238565b60e08a015190614238565b905004610e9460a088015161424b565b60608601519061427c565b60208401528251614705565b6114b66114a16114946020850151606087015190614238565b610e94608087015161424b565b610eb16040860151610e9460a088015161424b565b106114d7576040915160608201526020815191015182519182526020820152f35b60405162461bcd60e51b815260206004820152602760248201527f496e73756666696369656e7420626f72726f7720746f20726570617920666c6160448201526639b4103637b0b760c91b6064820152608490fd5b634e487b7160e01b85526011600452602485fd5b82525f611391565b909192939461156361155a8784614286565b60011c87614705565b956115708585888a615268565b156115a25750506001850180861161158e57905b939291909361137b565b634e487b7160e01b89526011600452602489fd5b9150945f1981019081111561158457634e487b7160e01b89526011600452602489fd5b606460405162461bcd60e51b815260206004820152602060248201527f44657369726564206c657665726167652065786365656473206d6178696d756d6044820152fd5b60405162461bcd60e51b8152602060048201526016602482015275098caeccae4c2ceca40daeae6e840c4ca407c7a4062f60531b6044820152606490fd5b60405162461bcd60e51b81526020600482015260166024820152750436f6c6c61746572616c206d757374206265203e20360541b6044820152606490fd5b634e487b7160e01b8e52604160045260248efd5b9097506020813d6020116116c5575b816116b56020938361315a565b810103126104a05751965f611242565b3d91506116a8565b6040513d8d823e3d90fd5b600c546001600160a01b0316926116f08415156146c8565b602060018060a01b03600954166024604051809781936341976e0960e01b835260048301525afa801561176057879061172d575b835292506111e1565b506020843d602011611758575b816117476020938361315a565b810103126104a05760049351611724565b3d915061173a565b6040513d89823e3d90fd5b600c546001600160a01b0316906020906117868315156146c8565b6024604051809481936341976e0960e01b835260048301525afa9081156117605787916117b7575b5085525f6111d8565b90506020813d6020116117e1575b816117d26020938361315a565b810103126104a057515f6117ae565b3d91506117c5565b6118039192506101403d8111610b5c57610b44818361315a565b50505050505050509050905f6111c4565b503461021f578060031936011261021f57600654600854604051633e15014160e01b81526001600160a01b039182166004820181905290939290916101409185916024918391165afa9283156103b3578293611967575b50600c546040516341976e0960e01b815260048101929092526001600160a01b0316602082602481845afa91821561072f578392611933575b50602060018060a01b03600954166024604051809481936341976e0960e01b835260048301525afa928315610cc457926118fc575b6020610d1b8585856118ec8215156141ec565b6118f7811515614195565b614b56565b9150916020823d60201161192b575b816119186020938361315a565b810103126104a0579051909160206118d9565b3d915061190b565b9091506020813d60201161195f575b8161194f6020938361315a565b810103126104a05751905f6118a4565b3d9150611942565b6119819193506101403d8111610b5c57610b44818361315a565b50505050505050509050915f61186b565b503461021f578060031936011261021f5760015460405160089190911c6001600160a01b03168152602090f35b503461021f578060031936011261021f576020600354604051908152f35b503461021f57602036600319011261021f5760043560015460ff81165f14611b0157611ab29291602091611a21903360089190911c6001600160a01b03161461318f565b611a2c811515614293565b600954611a47908290309033906001600160a01b0316614941565b600954600554611a659183916001600160a01b0390811691166149aa565b60055460095460405163573ade8160e01b81526001600160a01b03918216600482015260248101939093526002604484015230606484015291948592909116908290859082906084820190565b03925af1908115610cc45790611ace575b602090604051908152f35b506020813d602011611af9575b81611ae86020938361315a565b810103126104a05760209051611ac3565b3d9150611adb565b506004805483546040516331a9108f60e11b815292830152602090829060249082906001600160a01b03165afa90811561072f578391611b5e575b50611ab29291602091611b59906001600160a01b0316331461318f565b611a21565b90506020813d602011611b9e575b81611b796020938361315a565b810103126105a257611ab29291611b59611b9460209361317b565b9250509192611b3c565b3d9150611b6c565b503461021f57602036600319011261021f576020610d1b600435614666565b503461021f57602036600319011261021f5760043560015460ff81165f14611d7f57611c5991602091611c08903360089190911c6001600160a01b03161461318f565b611c13811515614293565b600554600854604051631a4ca37b60e21b81526001600160a01b039182166004820152602481019390935233604484015291938492909116908290869082906064820190565b03925af19081156103b3578291611d4d575b50600554604051632fe4a15f60e21b81523060048201529060c090829060249082906001600160a01b03165afa90811561072f57670de0b6b3a7640000929391611d18575b501115611cc257602090604051908152f35b60405162461bcd60e51b815260206004820152602860248201527f5769746864726177616c20776f756c64206d616b6520706f736974696f6e20756044820152676e6865616c74687960c01b6064820152608490fd5b611d3a915060c03d60c011611d46575b611d32818361315a565b810190614307565b9450505050505f611cb0565b503d611d28565b90506020813d602011611d77575b81611d686020938361315a565b810103126104a057515f611c6b565b3d9150611d5b565b506004805483546040516331a9108f60e11b815292830152602090829060249082906001600160a01b03165afa90811561072f578391611ddb575b50611c5991602091611dd6906001600160a01b0316331461318f565b611c08565b90506020813d602011611e19575b81611df66020938361315a565b810103126105a257611c5991611dd6611e1060209361317b565b92505091611dba565b3d9150611de9565b503461021f578060031936011261021f576020610d1b614335565b503461021f576020610d1b611e50366130f6565b91614b56565b503461021f578060031936011261021f576004546040516001600160a01b039091168152602090f35b503461021f578060031936011261021f576009546040516001600160a01b039091168152602090f35b503461021f576020611ec2611ebc366130f6565b91614a9f565b6040519015158152f35b503461021f57602036600319011261021f5760043560015460ff81165f1461207157611f08903360089190911c6001600160a01b03161461318f565b611f13811515614293565b60055460095483916001600160a01b039182169116803b156105a25760405163a415bcad60e01b81526001600160a01b0392909216600483015260248201849052600260448301525f60648301523060848301528290829060a490829084905af180156103b35761205c575b5050600954611f99919033906001600160a01b03166147a2565b600554604051632fe4a15f60e21b81523060048201529060c090829060249082906001600160a01b03165afa80156103b357670de0b6b3a7640000918391612037575b501115611fe65780f35b60405162461bcd60e51b8152602060048201526024808201527f426f72726f7720776f756c64206d616b6520706f736974696f6e20756e6865616044820152636c74687960e01b6064820152608490fd5b612050915060c03d60c011611d4657611d32818361315a565b9450505050505f611fdc565b816120669161315a565b61084c57815f611f7f565b506004805483546040516331a9108f60e11b815292830152602090829060249082906001600160a01b03165afa801561072f5783906120c5575b6120c091506001600160a01b0316331461318f565b611f08565b506020813d6020116120f8575b816120df6020938361315a565b810103126105a2576120f36120c09161317b565b6120ab565b3d91506120d2565b503461021f57602036600319011261021f5760043560015460ff81165f1461228e5761213c903360089190911c6001600160a01b03161461318f565b612147811515614293565b600854612162908290309033906001600160a01b0316614941565b6008546005546121809183916001600160a01b0390811691166149aa565b60055460085483916001600160a01b039182169116803b156105a2576121c3839291839260405194858094819363617ba03760e01b83528a3091600485016142de565b03925af180156103b357612279575b5050600554604051632fe4a15f60e21b81523060048201529060c090829060249082906001600160a01b03165afa90811561072f578391612254575b5060018060a01b036008541691604051928352602083015260408201527fd6d81c1974b203305e6ade64424f84ce47a35e9dd74d17c5c04cfa48b11c7f0560603392a280f35b61226d915060c03d60c011611d4657611d32818361315a565b9450505050505f61220e565b816122839161315a565b61084c57815f6121d2565b506004805483546040516331a9108f60e11b815292830152602090829060249082906001600160a01b03165afa801561072f5783906122e2575b6122dd91506001600160a01b0316331461318f565b61213c565b506020813d602011612315575b816122fc6020938361315a565b810103126105a2576123106122dd9161317b565b6122c8565b3d91506122ef565b503461021f578060031936011261021f576006546008546040516334924edb60e21b81526001600160a01b039182166004820181905290939190921691606084602481865afa80156103b35760249483916125e0575b50606060018060a01b036009541694604051968780926334924edb60e21b82528860048301525afa90811561072f57839495602494926125b9575b506040516370a0823160e01b81523060048201529360209185919082906001600160a01b03165afa92831561087d578493612584575b506040516370a0823160e01b81523060048201529290602090849060249082906001600160a01b03165afa92831561087d578493612550575b50600c546040516341976e0960e01b815260048101939093526001600160a01b031694602083602481895afa92831561046257859361251b575b506020906024604051809881936341976e0960e01b835260048301525afa94851561087d5784956124e5575b506020946124bb6124b0846124c1946124a06124cc971515614195565b6124ab8515156141ec565b614238565b610eb1600a5461424b565b93614238565b610eb1600b5461424b565b908181106124de57610d1b9250614286565b5050610d1b565b9094506020813d602011612513575b816125016020938361315a565b810103126104a05751936124c1612483565b3d91506124f4565b9092506020813d602011612548575b816125376020938361315a565b810103126104a05751916020612457565b3d915061252a565b9092506020813d60201161257c575b8161256c6020938361315a565b810103126104a05751915f61241d565b3d915061255f565b92506020833d6020116125b1575b8161259f6020938361315a565b810103126104a05791519160206123e4565b3d9150612592565b60209192506125d69060603d606011610fe957610fd8818361315a565b91505091906123ae565b6125f9915060603d606011610fe957610fd8818361315a565b50505f612373565b503461021f578060031936011261021f5760015460ff8116156126f357612638903360089190911c6001600160a01b03161461318f565b60055460405163074b2e4360e01b8152906020908290600490829086906001600160a01b03165af19081156103b357612710916001600160801b039184916126c4575b501680600e55101561268a5780f35b60405162461bcd60e51b8152602060048201526012602482015271466565206d757374206265203c203130302560701b6044820152606490fd5b6126e6915060203d6020116126ec575b6126de818361315a565b810190614130565b5f61267b565b503d6126d4565b506004805482546040516331a9108f60e11b815292830152602090829060249082906001600160a01b03165afa80156103b3578290612747575b61274291506001600160a01b0316331461318f565b612638565b506020813d60201161277a575b816127616020938361315a565b8101031261084c576127756127429161317b565b61272d565b3d9150612754565b503461021f5761016036600319011261021f575f5160206152a85f395f51905f525460ff8160401c1615906001600160401b03811680159081612b74575b6001149081612b6a575b159081612b61575b50612b525767ffffffffffffffff1981166001175f5160206152a85f395f51905f525581612b26575b50816004356001600160a01b038116908181036105a25750600580546001600160a01b031916821790556024356001600160a01b03811690818103612b035750600680546001600160a01b0319169190911790556044356001600160a01b03811690818103612b035750600780546001600160a01b0319169190911790556064356001600160a01b03811690818103612b035750600480546001600160a01b03191691909117905560843582556001600160a01b036128b8614104565b166001600160601b0360a01b600854161760085560018060a01b036128db61411a565b166001600160601b0360a01b600954161760095560e4359060018060a01b038216808303612b0357602092506001600160601b0360a01b600c541617600c5560046040518094819363074b2e4360e01b83525af1801561072f576001600160801b03918491612b07575b5016600e55610104356001600160a01b03811690818103612b035750600d80546001600160a01b03191691909117905561014435600355600460206001600160a01b03612990614104565b166040519283809263313ce56760e01b82525afa801561072f5760ff918491612ae4575b5016600a55600460206001600160a01b036129cd61411a565b166040519283809263313ce56760e01b82525afa801561072f5760ff918491612ab5575b5016600b556101243580612a6657506126ac6002555b612a0e5780f35b68ff0000000000000000195f5160206152a85f395f51905f5254165f5160206152a85f395f51905f52557fc7f505b2f371ae2175ee4913f4499e1f2633a7b5936321eed1cdaeb6115181d2602060405160018152a180f35b612710811015612a7857600255612a07565b60405162461bcd60e51b815260206004820152601560248201527424b73b30b634b21039b0b332ba3c9036b0b933b4b760591b6044820152606490fd5b612ad7915060203d602011612add575b612acf818361315a565b81019061414f565b5f6129f1565b503d612ac5565b612afd915060203d602011612add57612acf818361315a565b5f6129b4565b8380fd5b612b20915060203d6020116126ec576126de818361315a565b5f612945565b68ffffffffffffffffff191668010000000000000001175f5160206152a85f395f51905f52555f6127fb565b63f92ee8a960e01b8352600483fd5b9050155f6127d2565b303b1591506127ca565b8391506127c0565b503461021f5760a036600319011261021f57612b9661309f565b60643591906001600160a01b038316830361084c576084356001600160401b0381116105a257612bca9036906004016130c9565b9390917f9b779b17422d0df92223018b32b4d1fa46e071723d6817e2486d003becc55f005c612c5a579160209491612c2d9360017f9b779b17422d0df92223018b32b4d1fa46e071723d6817e2486d003becc55f005d6044359060243590613412565b907f9b779b17422d0df92223018b32b4d1fa46e071723d6817e2486d003becc55f005d6040519015158152f35b633ee5aeb560e01b8452600484fd5b503461021f578060031936011261021f5760209054604051908152f35b50346104a05760803660031901126104a0576024356044356001600160401b0381116104a057612cba9036906004016130c9565b9060015460ff81165f14612dcf57612d5e91612d6c91612cea903360089190911c6001600160a01b03161461318f565b6008546009546040516001600160a01b03918216969093612d2e93909216612d1185613110565b845260043560208501528660408501528760608501523691613322565b608082015260643560a082015260405192839160016020840152336040840152606080840152608083019061337c565b03601f19810183528261315a565b6005546001600160a01b0316803b156104a057612da4935f8094604051968795869485936310ac2ddf60e21b855230600486016133d4565b03925af18015612dc457612db6575080f35b612dc291505f9061315a565b005b6040513d5f823e3d90fd5b50600480545f546040516331a9108f60e11b815292830152602090829060249082906001600160a01b03165afa908115612dc4575f91612e2c575b50612d5e91612d6c91612e27906001600160a01b0316331461318f565b612cea565b90506020813d602011612e6b575b81612e476020938361315a565b810103126104a057612d5e91612e27612e62612d6c9361317b565b92505091612e0a565b3d9150612e3a565b346104a0575f3660031901126104a057600654600854604051633e15014160e01b81526001600160a01b039182166004820152916101409183916024918391165afa908115612dc457602091610d1b915f91612edb575b50612ed68115156132bb565b614666565b612ef491506101403d8111610b5c57610b44818361315a565b5050505050505050905083612eca565b346104a05760403660031901126104a057612f1d61309f565b9060015460ff81165f1461301857612f4691503360089190911c6001600160a01b03161461318f565b600480545f5460405163eb02c30160e01b81529283015260a090829060249082906001600160a01b03165afa908115612dc4576001916080915f91612ff9575b500151151503612fa857612dc2906024359033906001600160a01b03166147a2565b60405162461bcd60e51b8152602060048201526024808201527f4e4654206d757374206265206275726e656420746f207265636f76657220746f6044820152636b656e7360e01b6064820152608490fd5b613012915060a03d60a01161087657610869818361315a565b84612f86565b5060208160248160018060a01b03600454165f546331a9108f60e11b835260048301525afa8015612dc4575f90613064575b61305f91506001600160a01b0316331461318f565b612f46565b506020813d602011613097575b8161307e6020938361315a565b810103126104a05761309261305f9161317b565b61304a565b3d9150613071565b600435906001600160a01b03821682036104a057565b35906001600160a01b03821682036104a057565b9181601f840112156104a0578235916001600160401b0383116104a057602083818601950101116104a057565b60609060031901126104a057600435906024359060443590565b60c081019081106001600160401b0382111761312b57604052565b634e487b7160e01b5f52604160045260245ffd5b608081019081106001600160401b0382111761312b57604052565b90601f801991011681019081106001600160401b0382111761312b57604052565b51906001600160a01b03821682036104a057565b1561319657565b60405162461bcd60e51b81526020600482015260096024820152682737ba1027bbb732b960b91b6044820152606490fd5b519081151582036104a057565b908160a09103126104a0576040519060a082018281106001600160401b0382111761312b576132479160809160405261320c8161317b565b845261321a6020820161317b565b602085015261322b6040820161317b565b604085015261323c606082016131c7565b6060850152016131c7565b608082015290565b9190826101409103126104a05781519160208101519160408201519160608101519160808201519161328360a082016131c7565b9161329060c083016131c7565b9161329d60e082016131c7565b916132b86101206132b161010085016131c7565b93016131c7565b90565b156132c257565b60405162461bcd60e51b815260206004820152601e60248201527f4173736574206e6f7420757361626c6520617320636f6c6c61746572616c00006044820152606490fd5b6001600160401b03811161312b57601f01601f191660200190565b92919261332e82613307565b9161333c604051938461315a565b8294818452818301116104a0578281602093845f960137010152565b805180835260209291819084018484015e5f828201840152601f01601f1916010190565b9060018060a01b0382511681526020820151602082015260018060a01b0360408301511660408201526060820151606082015260a0806133cb608085015160c0608086015260c0850190613358565b93015191015290565b6001600160a01b03918216815291166020820152604081019190915260a0606082018190529092915f9160809161340d91860190613358565b930152565b949193929092600554925f9360018060a01b0316928333036140bf57306001600160a01b039091160361407a578101916020828403126104a057813560028110156104a057613af757509061346691614823565b600654600854604051633e15014160e01b81526001600160a01b039182166004820181905294979395509293916101409184916024918391165afa918215610462578592613acc575b50600c546040516341976e0960e01b815260048101929092526001600160a01b031690602081602481855afa9081156104ac578691613a9a575b50602060018060a01b03600954166024604051809581936341976e0960e01b835260048301525afa9182156104ac578692613a62575b50918161353e936118ec6135349415156141ec565b6020840151614705565b926135498483614d25565b600d546040516375c6976360e01b81526001600160a01b03909116939190602081600481885afa90811561087d578491613a2c575b506305f5e100916124ab6135929285614238565b04966001600160a01b038916936135ab908990866149aa565b600d54600954606087018051909a9290916001600160a01b039081169116803b1561046d5760405163013ee73760e31b81526001600160a01b038e811660048301526024820186905292909216604483015260648201929092529085908290608490829084905af1801561046257908591613a17575b5050613631906113538885614705565b6005546136499082906001600160a01b0316876149aa565b6005546001600160a01b031690813b15613a13578a6136839286928360405180968195829463617ba03760e01b84523091600485016142de565b03925af1801561087d576139fe575b509060249392916040860195602060018060a01b03885116604051978880926370a0823160e01b82523060048301525afa95861561087d5784966139ca575b5060055487518b516001600160a01b039182169290911690813b1561046d5760405163a415bcad60e01b81526001600160a01b039390931660048401526024830152600260448301525f60648301523060848301528590829060a490829084905af18015610462579085916139b5575b5050600554604051632fe4a15f60e21b81523060048201529060c090829060249082906001600160a01b03165afa801561046257906137bd9291613993575b5087516007548c516137a09290916001600160a01b0390811691166149aa565b6080810151815160a090920151916001600160a01b031690614e80565b86516040516370a0823160e01b815230600482015291969190602090829060249082906001600160a01b03165afa908115610462578591613961575b500361391c5761380891614705565b92613815848210156148e6565b83811161389c575b50506005547f796518eca07bb45c4e5d7ce48e3a83647f98767d1b348db41bc941db82215a9a9695946138949490939092613861926001600160a01b0316906149aa565b519351604080516001600160a01b0398891681529588166020870152850191909152606084015293169281906080820190565b0390a2600190565b836138a691614286565b6005546138be9082906001600160a01b0316856149aa565b6005546001600160a01b031690813b156105a257896138f89284928360405180968195829463617ba03760e01b84523091600485016142de565b03925af180156103b3571561381d5761391282809261315a565b61021f578061381d565b60405162461bcd60e51b815260206004820152601d60248201527f426f72726f7720746f6b656e206c65667420696e20636f6e74726163740000006044820152606490fd5b90506020813d60201161398b575b8161397c6020938361315a565b810103126104a057515f6137f9565b3d915061396f565b6139ab9060c03d60c011611d4657611d32818361315a565b5050505050613780565b816139bf9161315a565b612b0357835f613741565b9095506020813d6020116139f6575b816139e66020938361315a565b810103126104a05751945f6136d1565b3d91506139d9565b613a0984809261315a565b6105a2575f613692565b8480fd5b81613a219161315a565b612b0357835f613621565b90506020813d602011613a5a575b81613a476020938361315a565b810103126104a057516305f5e10061357e565b3d9150613a3a565b9150916020823d602011613a92575b81613a7e6020938361315a565b810103126104a0579051909161353e61351f565b3d9150613a71565b90506020813d602011613ac4575b81613ab56020938361315a565b810103126104a057515f6134e9565b3d9150613aa8565b613ae69192506101403d8111610b5c57610b44818361315a565b50505050505050509050905f6134af565b9395949291613b0591614823565b92915093613b1d8760018060a01b03881692836149aa565b60055460405163573ade8160e01b81526001600160a01b038881166004830152602482018a9052600260448301523060648301529091602091839160849183915f91165af18015612dc45761404b575b50600c546040516341976e0960e01b81526004810183905292906001600160a01b0316602084602481845afa938415612dc4575f94614017575b50602060018060a01b038651166024604051809481936341976e0960e01b835260048301525afa908115612dc4575f91613fe5575b5083151580613fdc575b15613fa657600d546040516375c6976360e01b815290602090829060049082906001600160a01b03165afa948515612dc4578a9588925f91613f6b575b5092610e94613c8a613c7894610e94613c84610eb196610e94613c576127108f613c909d613c5091614238565b0483614238565b94613c7e613c6b600a5497610e948961424b565b610eb1600b549d8e61424b565b8c614238565b9e614705565b9161424b565b9361424b565b61041a81029080820461041a1490151715613f57576020613cb8856103e8613cfd9404614705565b6005548751604051631a4ca37b60e21b81526001600160a01b0391821660048201526024810193909352306044840152919384929091169082905f9082906064820190565b03925af18015612dc45784905f90613f21575b613d1a9250614286565b8451600754919691613d3a9188916001600160a01b0390811691166149aa565b608085015160095460a0870151613d5c9290916001600160a01b031690614e80565b600854600d54919591613d7d9183916001600160a01b0390811691166149aa565b600d546008546001600160a01b03918216929116823b156104a05760405163013ee73760e31b81526001600160a01b03918216600482015260248101929092528a166044820152606481018b9052905f908290608490829084905af18015612dc457613f0a575b50613def9089614705565b92613dfc848210156148e6565b613e068482614286565b613e80575b50506005547fe8dfad1acfa7977717d7ec3a8991b5003e6fc7987d9ac512c08e4f3250f7511b9695946138949490939092613e4f926001600160a01b0316906149aa565b51604080516001600160a01b0392831681529582166020870152850196909652606084015293169281906080820190565b600554613ea1906001600160a01b0316613e9a8684614286565b90856149aa565b6005546001600160a01b031690613eb9908590614286565b813b156105a25788613ee69284928360405180968195829463617ba03760e01b84523091600485016142de565b03925af180156103b35715613e0b57613f0082809261315a565b61021f5780613e0b565b613f179192505f9061315a565b5f90613def613de4565b50506020813d602011613f4f575b81613f3c6020938361315a565b810103126104a05783613d1a9151613d10565b3d9150613f2f565b634e487b7160e01b5f52601160045260245ffd5b92505094506020813d602011613f9e575b81613f896020938361315a565b810103126104a0575189948791610e94613c23565b3d9150613f7c565b60405162461bcd60e51b815260206004820152600e60248201526d496e76616c69642070726963657360901b6044820152606490fd5b50801515613be6565b90506020813d60201161400f575b816140006020938361315a565b810103126104a057515f613bdc565b3d9150613ff3565b9093506020813d602011614043575b816140336020938361315a565b810103126104a05751925f613ba7565b3d9150614026565b6020813d602011614072575b816140646020938361315a565b810103126104a05751613b6d565b3d9150614057565b60405162461bcd60e51b815260206004820152601f60248201527f496e69746961746f72206d757374206265207468697320636f6e7472616374006044820152606490fd5b60405162461bcd60e51b815260206004820152601860248201527f43616c6c6572206d757374206265204161766520506f6f6c00000000000000006044820152606490fd5b60a4356001600160a01b03811681036104a05790565b60c4356001600160a01b03811681036104a05790565b908160209103126104a057516001600160801b03811681036104a05790565b908160209103126104a0575160ff811681036104a05790565b908160609103126104a05761417c8161317b565b916132b8604061418e6020850161317b565b930161317b565b1561419c57565b60405162461bcd60e51b815260206004820152602260248201527f436f6c6c61746572616c20746f6b656e207072696365206d757374206265203e604482015261020360f41b6064820152608490fd5b156141f357565b60405162461bcd60e51b815260206004820152601e60248201527f426f72726f7720746f6b656e207072696365206d757374206265203e203000006044820152606490fd5b81810292918115918404141715613f5757565b604d8111613f5757600a0a90565b8015614268576305f5e1000490565b634e487b7160e01b5f52601260045260245ffd5b8115614268570490565b91908203918211613f5757565b1561429a57565b606460405162461bcd60e51b815260206004820152602060248201527f416d6f756e74206d7573742062652067726561746572207468616e207a65726f6044820152fd5b6001600160a01b039182168152602081019290925290911660408201525f606082015260800190565b91908260c09103126104a05781519160208101519160408201519160608101519160a0608083015192015190565b6006546008546040516334924edb60e21b81526001600160a01b0391821660048201819052909290911690606083602481855afa8015612dc4576024935f91614645575b50606060018060a01b036009541693604051958680926334924edb60e21b82528760048301525afa908115612dc4576024945f9261461e575b506040516370a0823160e01b81523060048201529460209186919082906001600160a01b03165afa938415612dc4575f946145e9575b506040516370a0823160e01b81523060048201529390602090859060249082906001600160a01b03165afa938415612dc4575f946145b5575b5080156145ad5783156145a357600c546040516341976e0960e01b815260048101939093526001600160a01b031692602083602481875afa928315612dc4575f9361456e575b506020906024604051809681936341976e0960e01b835260048301525afa928315612dc4575f93614538575b506144bd926144b16124b0846124c1946124a06144b7971515614195565b94614238565b82614286565b80156144e1576127108202918083046127101490151715613f57576132b89161427c565b60405162461bcd60e51b815260206004820152602960248201527f496e76616c696420706f736974696f6e3a2064656274206578636565647320636044820152681bdb1b185d195c985b60ba1b6064820152608490fd5b9092506020813d602011614566575b816145546020938361315a565b810103126104a05751916124c1614493565b3d9150614547565b9092506020813d60201161459b575b8161458a6020938361315a565b810103126104a05751916020614467565b3d915061457d565b5050505061271090565b505050505f90565b9093506020813d6020116145e1575b816145d16020938361315a565b810103126104a05751925f614421565b3d91506145c4565b93506020843d602011614616575b816146046020938361315a565b810103126104a05792519260206143e8565b3d91506145f7565b602091925061463b9060603d606011610fe957610fd8818361315a565b91505091906143b2565b61465e915060603d606011610fe957610fd8818361315a565b50505f614379565b801515806146bd575b1561468a57612710036127108111613f57576132b890614259565b60405162461bcd60e51b815260206004820152600b60248201526a24b73b30b634b210262a2b60a91b6044820152606490fd5b50612710811061466f565b156146cf57565b60405162461bcd60e51b815260206004820152600e60248201526d13dc9858db19481b9bdd081cd95d60921b6044820152606490fd5b91908201809211613f5757565b1561471957565b60405162461bcd60e51b815260206004820152601a60248201527f4173736574206e6f7420636f6c6c61746572616c697a61626c650000000000006044820152606490fd5b1561476557565b60405162461bcd60e51b815260206004820152601560248201527424b73b30b634b21032b33332b1ba34bb3290262a2b60591b6044820152606490fd5b916040519163a9059cbb60e01b5f5260018060a01b031660045260245260205f60448180865af19060015f5114821615614802575b604052156147e25750565b635274afe760e01b5f9081526001600160a01b0391909116600452602490fd5b90600181151661481a57823b15153d151616906147d7565b503d5f823e3d90fd5b90916060828403126104a057813560028110156104a05792614847602084016130b5565b926040810135906001600160401b0382116104a057019060c0828203126104a0576040519161487583613110565b61487e816130b5565b835260208101356020840152614896604082016130b5565b60408401526060810135606084015260808101356001600160401b0381116104a057810182601f820112156104a05760a0928160206148d793359101613322565b6080840152013560a082015290565b156148ed57565b60405162461bcd60e51b815260206004820152602660248201527f496e73756666696369656e742066756e647320746f20726570617920666c617360448201526534103637b0b760d11b6064820152608490fd5b6040516323b872dd60e01b5f9081526001600160a01b039384166004529290931660245260449390935260209060648180865af19060015f5114821615614992575b6040525f606052156147e25750565b90600181151661481a57823b15153d15161690614983565b916040519163095ea7b360e01b5f5260018060a01b031691826004528160245260205f60448180885af19060015f5114821615614a90575b604052156149ef57505050565b60405163095ea7b360e01b5f52826004525f60245260205f60448180885af19060015f5114821615614a78575b60405215614a5a576040519163095ea7b360e01b5f5260045260245260205f60448180865af19060015f511482161561480257604052156147e25750565b635274afe760e01b5f9081526001600160a01b038416600452602490fd5b90600181151661481a57843b15153d15161690614a1c565b90843b15153d151616906149e2565b9161270f198301838111613f575780670de0b6b3a76400000290670de0b6b3a7640000820403613f5757612710900490614ae8612710614ae1600e5485614238565b0483614705565b9380670de0b6b3a76400000290670de0b6b3a7640000820403613f57576305f5e10091614b1491614238565b0490670de0b6b3a76400008210156145ad57670de0b6b3a7640000019182670de0b6b3a764000011613f57576124ab614b509261271094614286565b04101590565b6006546008546040516334924edb60e21b81526001600160a01b0391821660048201525f9590949092909116606085602481845afa948515612dc4576024956020915f91614d04575b506040516370a0823160e01b815230600482015296879182906001600160a01b03165afa948515612dc4575f95614cd0575b50606060018060a01b03600954166024604051809481936334924edb60e21b835260048301525afa908115612dc4576024916020915f91614cae575b506040516370a0823160e01b815230600482015292839182906001600160a01b03165afa908115612dc4575f91614c74575b5061271093610eb1610ea5610e9a614c5b96956124ab95614238565b049081811015614c6a57505090565b6132b89250614286565b929190506020833d602011614ca6575b81614c916020938361315a565b810103126104a0579151909190612710614c3f565b3d9150614c84565b614cc7915060603d606011610fe957610fd8818361315a565b9150505f614c0d565b9094506020813d602011614cfc575b81614cec6020938361315a565b810103126104a05751935f614bd1565b3d9150614cdf565b614d1d915060603d606011610fe957610fd8818361315a565b50505f614b9f565b600d546040516375c6976360e01b815291929190602090829060049082906001600160a01b03165afa8015612dc4575f90614e4c575b614d699150600e5490614705565b918215614e2057614d7a8383614238565b9261271003906127108211613f5757614d96614d9c9284614238565b92614705565b906127108202918083046127101490151715613f5757614dbc8180614238565b6001600160fe1b0384168403613f5757614de9614de391614de3614dee958760021b614238565b90614286565b615133565b6127108102908082046127101490151715613f57576001600160ff1b0382168203613f57576132b89160011b9061427c565b61271080820293508115918404141715613f5757614e3d9161427c565b6127108101809111613f575790565b506020813d602011614e78575b81614e666020938361315a565b810103126104a057614d699051614d5b565b3d9150614e59565b6040516370a0823160e01b81523060048201526001600160a01b039092169190602082602481865afa918215612dc4575f926150ff575b5060075481515f92839260209091019083906001600160a01b03165af13d156150fa573d614ee481613307565b90614ef2604051928361315a565b81525f60203d92013e5b156150c1576020602492604051938480926370a0823160e01b82523060048301525afa8015612dc4575f9061508d575b614fdd92507fc1e939504652ef02a9ca6daed56895e404fa97befa0f89d44aefcd0b570653ac6080604051848152604060208201526013604082015272042616c616e6365206265666f7265207377617606c1b6060820152a17fc1e939504652ef02a9ca6daed56895e404fa97befa0f89d44aefcd0b570653ac6080604051838152604060208201526012604082015271042616c616e636520616674657220737761760741b6060820152a1614286565b907fc1e939504652ef02a9ca6daed56895e404fa97befa0f89d44aefcd0b570653ac60806040518481526040602082015260146040820152731058dd1d585b081c995d1d5c9b88185b5bdd5b9d60621b6060820152a1811061503c5790565b60405162461bcd60e51b8152602060048201526024808201527f496e73756666696369656e742072657475726e20616d6f756e742066726f6d206044820152630737761760e41b6064820152608490fd5b506020823d6020116150b9575b816150a76020938361315a565b810103126104a057614fdd9151614f2c565b3d915061509a565b60405162461bcd60e51b81526020600482015260116024820152700c5a5b98da081cddd85c0819985a5b1959607a1b6044820152606490fd5b614efc565b9091506020813d60201161512b575b8161511b6020938361315a565b810103126104a05751905f614eb7565b3d915061510e565b90811561526357816001600160801b821015615252575b600482600160401b6151fc941015615245575b640100000000811015615238575b6201000081101561522b575b61010081101561521f575b6010811015615213575b101561520b575b61519d818561427c565b0160011c6151ab818561427c565b0160011c6151b9818561427c565b0160011c6151c7818561427c565b0160011c6151d5818561427c565b0160011c6151e3818561427c565b0160011c6151f1818561427c565b0160011c809361427c565b808310156152075750565b9150565b60011b615193565b811c9160021b9161518c565b60081c91811b91615182565b60101c9160081b91615177565b60201c9160101b9161516b565b60401c9160201b9161515d565b5050608082901c600160401b61514a565b5f9150565b92909161270f198401848111613f575780670de0b6b3a76400000290670de0b6b3a7640000820403613f5757612710614ae181614ae89304948561423856fef0c57e16840df040f15088dc2f81fe391c3923bec73e23a9662efc9c229c6a00a26469706673582212204bcba80c3fedae70d2037fa0b220faf4af485e35e36dc4a9465d8086d23567b764736f6c634300081e0033","linkReferences":{}},"methodIdentifiers":{"VARIABLE_DEBT()":"d6a90c06","aaveDataProvider()":"a4f4acc5","aavePool()":"a03e4bc3","borrowDebtToken(uint256)":"3c325729","borrowSafetyMargin()":"93e28565","borrowToken()":"456dc17a","borrowTokenDecimals()":"e579b963","burnPosition(address)":"cf661146","burnedTokenOwner()":"6eed77ab","calculateDesiredLeverage(uint256,uint256)":"7f4225e1","calculateOpenParams((uint256,uint256,uint256,uint256))":"7763e24e","calculateUnwindParams(uint256)":"7c607855","collateralToken()":"b2016bd4","collateralTokenDecimals()":"b54790d8","createLeveragedPosition(uint256,uint256,uint256,bytes,uint256)":"d7d58156","executeOperation(address,uint256,uint256,address,bytes)":"1b11d0ff","feeCollector()":"c415b95c","flashLoanFeeBps()":"c0c7347e","getBorrowTokenAddress()":"1903d025","getCollateralTokenAddress()":"6d483fe6","getCurrentLeverage()":"5bfb92ce","getFreeCollateral()":"6f187417","getFreeCollateral(uint256,uint256,uint256)":"51663c2a","getMaxAchievableLeverageBinary()":"b2eb2135","getMaxLeverage()":"0ea8b3bf","getMaxLeverage(uint256)":"6273aae8","getPositionUsdValue()":"2f78e578","initialize((address,address,address,address,uint256,address,address,address,address,uint256,uint256))":"2a83fd84","isBurned()":"c34da17c","isLeverageSafe(uint256,uint256,uint256)":"45487a47","maxLeverageOffset()":"6b6d2603","oneInchRouter()":"ac3af208","owner()":"8da5cb5b","recoverTokens(address,uint256)":"069c9fae","repayDebtToken(uint256)":"64538a29","strataxOracle()":"83d011bc","strataxPositionNft()":"47525c84","supplyCollateral(uint256)":"367febea","tokenId()":"17d70f7c","unwindPosition(uint256,uint256,bytes,uint256)":"172051bd","update1InchRouter(address)":"d305536f","updateFlashLoanFee()":"2d673c8a","updateMaxLeverageOffset(uint256)":"78f5ffbc","withdrawCollateral(uint256)":"6112fe2e"},"id":77}