{"abi":[{"type":"function","name":"UPGRADE_INTERFACE_VERSION","inputs":[],"outputs":[{"name":"","type":"string","internalType":"string"}],"stateMutability":"view"},{"type":"function","name":"aaveDataProvider","inputs":[],"outputs":[{"name":"","type":"address","internalType":"address"}],"stateMutability":"view"},{"type":"function","name":"aavePool","inputs":[],"outputs":[{"name":"","type":"address","internalType":"address"}],"stateMutability":"view"},{"type":"function","name":"approve","inputs":[{"name":"to","type":"address","internalType":"address"},{"name":"tokenId","type":"uint256","internalType":"uint256"}],"outputs":[],"stateMutability":"nonpayable"},{"type":"function","name":"balanceOf","inputs":[{"name":"owner","type":"address","internalType":"address"}],"outputs":[{"name":"","type":"uint256","internalType":"uint256"}],"stateMutability":"view"},{"type":"function","name":"burn","inputs":[{"name":"tokenId","type":"uint256","internalType":"uint256"}],"outputs":[],"stateMutability":"nonpayable"},{"type":"function","name":"calculateInitOpenParams","inputs":[{"name":"collateralToken","type":"address","internalType":"address"},{"name":"borrowToken","type":"address","internalType":"address"},{"name":"collateralAmount","type":"uint256","internalType":"uint256"},{"name":"desiredLeverage","type":"uint256","internalType":"uint256"}],"outputs":[{"name":"flashLoanAmount","type":"uint256","internalType":"uint256"},{"name":"borrowAmount","type":"uint256","internalType":"uint256"},{"name":"strataxFee","type":"uint256","internalType":"uint256"}],"stateMutability":"view"},{"type":"function","name":"currentTokenId","inputs":[],"outputs":[{"name":"","type":"uint256","internalType":"uint256"}],"stateMutability":"view"},{"type":"function","name":"defaultBorrowSafetyMargin","inputs":[],"outputs":[{"name":"","type":"uint256","internalType":"uint256"}],"stateMutability":"view"},{"type":"function","name":"defaultMaxLeverageOffset","inputs":[],"outputs":[{"name":"","type":"uint256","internalType":"uint256"}],"stateMutability":"view"},{"type":"function","name":"exists","inputs":[{"name":"tokenId","type":"uint256","internalType":"uint256"}],"outputs":[{"name":"","type":"bool","internalType":"bool"}],"stateMutability":"view"},{"type":"function","name":"feeCollector","inputs":[],"outputs":[{"name":"","type":"address","internalType":"address"}],"stateMutability":"view"},{"type":"function","name":"flashLoanFeeBps","inputs":[],"outputs":[{"name":"","type":"uint256","internalType":"uint256"}],"stateMutability":"view"},{"type":"function","name":"getApproved","inputs":[{"name":"tokenId","type":"uint256","internalType":"uint256"}],"outputs":[{"name":"","type":"address","internalType":"address"}],"stateMutability":"view"},{"type":"function","name":"getPosition","inputs":[{"name":"tokenId","type":"uint256","internalType":"uint256"}],"outputs":[{"name":"position","type":"tuple","internalType":"struct StrataxPositionNft.Position","components":[{"name":"collateralToken","type":"address","internalType":"address"},{"name":"borrowToken","type":"address","internalType":"address"},{"name":"strataxProxy","type":"address","internalType":"address"},{"name":"isActive","type":"bool","internalType":"bool"},{"name":"isBurned","type":"bool","internalType":"bool"}]}],"stateMutability":"view"},{"type":"function","name":"getPositionsByOwner","inputs":[{"name":"owner","type":"address","internalType":"address"},{"name":"amountofPositions","type":"uint256","internalType":"uint256"}],"outputs":[{"name":"tokenIds","type":"uint256[]","internalType":"uint256[]"},{"name":"positionList","type":"tuple[]","internalType":"struct StrataxPositionNft.Position[]","components":[{"name":"collateralToken","type":"address","internalType":"address"},{"name":"borrowToken","type":"address","internalType":"address"},{"name":"strataxProxy","type":"address","internalType":"address"},{"name":"isActive","type":"bool","internalType":"bool"},{"name":"isBurned","type":"bool","internalType":"bool"}]}],"stateMutability":"view"},{"type":"function","name":"getPositionsByOwner","inputs":[{"name":"owner","type":"address","internalType":"address"}],"outputs":[{"name":"tokenIds","type":"uint256[]","internalType":"uint256[]"},{"name":"positionList","type":"tuple[]","internalType":"struct StrataxPositionNft.Position[]","components":[{"name":"collateralToken","type":"address","internalType":"address"},{"name":"borrowToken","type":"address","internalType":"address"},{"name":"strataxProxy","type":"address","internalType":"address"},{"name":"isActive","type":"bool","internalType":"bool"},{"name":"isBurned","type":"bool","internalType":"bool"}]}],"stateMutability":"view"},{"type":"function","name":"getStrataxProxy","inputs":[{"name":"tokenId","type":"uint256","internalType":"uint256"}],"outputs":[{"name":"strataxProxy","type":"address","internalType":"address"}],"stateMutability":"view"},{"type":"function","name":"getTotalPositionsCreated","inputs":[],"outputs":[{"name":"count","type":"uint256","internalType":"uint256"}],"stateMutability":"view"},{"type":"function","name":"initialize","inputs":[{"name":"params","type":"tuple","internalType":"struct StrataxPositionNft.StrataxPositionNftInitParams","components":[{"name":"strataxBeacon","type":"address","internalType":"address"},{"name":"aavePool","type":"address","internalType":"address"},{"name":"aaveDataProvider","type":"address","internalType":"address"},{"name":"oneInchRouter","type":"address","internalType":"address"},{"name":"strataxOracle","type":"address","internalType":"address"},{"name":"feeCollector","type":"address","internalType":"address"},{"name":"owner","type":"address","internalType":"address"},{"name":"uri","type":"string","internalType":"string"}]}],"outputs":[],"stateMutability":"nonpayable"},{"type":"function","name":"isApprovedForAll","inputs":[{"name":"owner","type":"address","internalType":"address"},{"name":"operator","type":"address","internalType":"address"}],"outputs":[{"name":"","type":"bool","internalType":"bool"}],"stateMutability":"view"},{"type":"function","name":"isTokenPairValid","inputs":[{"name":"_collateralToken","type":"address","internalType":"address"},{"name":"_borrowToken","type":"address","internalType":"address"}],"outputs":[{"name":"","type":"bool","internalType":"bool"}],"stateMutability":"view"},{"type":"function","name":"mintPositionNft","inputs":[{"name":"to","type":"address","internalType":"address"},{"name":"collateralToken","type":"address","internalType":"address"},{"name":"borrowToken","type":"address","internalType":"address"},{"name":"_openInitPosition","type":"bool","internalType":"bool"},{"name":"_initParams","type":"tuple","internalType":"struct StrataxPositionNft.InitPositionParams","components":[{"name":"flashLoanAmount","type":"uint256","internalType":"uint256"},{"name":"collateralAmount","type":"uint256","internalType":"uint256"},{"name":"borrowAmount","type":"uint256","internalType":"uint256"},{"name":"oneInchSwapData","type":"bytes","internalType":"bytes"},{"name":"minReturnAmount","type":"uint256","internalType":"uint256"}]}],"outputs":[{"name":"tokenId","type":"uint256","internalType":"uint256"},{"name":"strataxProxy","type":"address","internalType":"address"}],"stateMutability":"nonpayable"},{"type":"function","name":"name","inputs":[],"outputs":[{"name":"","type":"string","internalType":"string"}],"stateMutability":"view"},{"type":"function","name":"onERC721Received","inputs":[{"name":"operator","type":"address","internalType":"address"},{"name":"from","type":"address","internalType":"address"},{"name":"tokenId","type":"uint256","internalType":"uint256"},{"name":"data","type":"bytes","internalType":"bytes"}],"outputs":[{"name":"","type":"bytes4","internalType":"bytes4"}],"stateMutability":"pure"},{"type":"function","name":"oneInchRouter","inputs":[],"outputs":[{"name":"","type":"address","internalType":"address"}],"stateMutability":"view"},{"type":"function","name":"owner","inputs":[],"outputs":[{"name":"","type":"address","internalType":"address"}],"stateMutability":"view"},{"type":"function","name":"ownerOf","inputs":[{"name":"tokenId","type":"uint256","internalType":"uint256"}],"outputs":[{"name":"","type":"address","internalType":"address"}],"stateMutability":"view"},{"type":"function","name":"positions","inputs":[{"name":"","type":"uint256","internalType":"uint256"}],"outputs":[{"name":"collateralToken","type":"address","internalType":"address"},{"name":"borrowToken","type":"address","internalType":"address"},{"name":"strataxProxy","type":"address","internalType":"address"},{"name":"isActive","type":"bool","internalType":"bool"},{"name":"isBurned","type":"bool","internalType":"bool"}],"stateMutability":"view"},{"type":"function","name":"predictStrataxProxyAddress","inputs":[{"name":"minter","type":"address","internalType":"address"},{"name":"tokenId","type":"uint256","internalType":"uint256"},{"name":"collateralToken","type":"address","internalType":"address"},{"name":"borrowToken","type":"address","internalType":"address"}],"outputs":[{"name":"predictedAddress","type":"address","internalType":"address"}],"stateMutability":"view"},{"type":"function","name":"proxiableUUID","inputs":[],"outputs":[{"name":"","type":"bytes32","internalType":"bytes32"}],"stateMutability":"view"},{"type":"function","name":"renounceOwnership","inputs":[],"outputs":[],"stateMutability":"nonpayable"},{"type":"function","name":"safeTransferFrom","inputs":[{"name":"from","type":"address","internalType":"address"},{"name":"to","type":"address","internalType":"address"},{"name":"tokenId","type":"uint256","internalType":"uint256"}],"outputs":[],"stateMutability":"nonpayable"},{"type":"function","name":"safeTransferFrom","inputs":[{"name":"from","type":"address","internalType":"address"},{"name":"to","type":"address","internalType":"address"},{"name":"tokenId","type":"uint256","internalType":"uint256"},{"name":"data","type":"bytes","internalType":"bytes"}],"outputs":[],"stateMutability":"nonpayable"},{"type":"function","name":"setApprovalForAll","inputs":[{"name":"operator","type":"address","internalType":"address"},{"name":"approved","type":"bool","internalType":"bool"}],"outputs":[],"stateMutability":"nonpayable"},{"type":"function","name":"setBaseURI","inputs":[{"name":"baseUri","type":"string","internalType":"string"}],"outputs":[],"stateMutability":"nonpayable"},{"type":"function","name":"setDefaultBorrowSafetyMargin","inputs":[{"name":"_borrowSafetyMargin","type":"uint256","internalType":"uint256"}],"outputs":[],"stateMutability":"nonpayable"},{"type":"function","name":"strataxAddressToTokenId","inputs":[{"name":"","type":"address","internalType":"address"}],"outputs":[{"name":"","type":"uint256","internalType":"uint256"}],"stateMutability":"view"},{"type":"function","name":"strataxBeacon","inputs":[],"outputs":[{"name":"","type":"address","internalType":"address"}],"stateMutability":"view"},{"type":"function","name":"strataxOracle","inputs":[],"outputs":[{"name":"","type":"address","internalType":"address"}],"stateMutability":"view"},{"type":"function","name":"supportsInterface","inputs":[{"name":"interfaceId","type":"bytes4","internalType":"bytes4"}],"outputs":[{"name":"","type":"bool","internalType":"bool"}],"stateMutability":"view"},{"type":"function","name":"symbol","inputs":[],"outputs":[{"name":"","type":"string","internalType":"string"}],"stateMutability":"view"},{"type":"function","name":"tokenByIndex","inputs":[{"name":"index","type":"uint256","internalType":"uint256"}],"outputs":[{"name":"","type":"uint256","internalType":"uint256"}],"stateMutability":"view"},{"type":"function","name":"tokenOfOwnerByIndex","inputs":[{"name":"owner","type":"address","internalType":"address"},{"name":"index","type":"uint256","internalType":"uint256"}],"outputs":[{"name":"","type":"uint256","internalType":"uint256"}],"stateMutability":"view"},{"type":"function","name":"tokenURI","inputs":[{"name":"tokenId","type":"uint256","internalType":"uint256"}],"outputs":[{"name":"","type":"string","internalType":"string"}],"stateMutability":"view"},{"type":"function","name":"totalSupply","inputs":[],"outputs":[{"name":"","type":"uint256","internalType":"uint256"}],"stateMutability":"view"},{"type":"function","name":"transferFrom","inputs":[{"name":"from","type":"address","internalType":"address"},{"name":"to","type":"address","internalType":"address"},{"name":"tokenId","type":"uint256","internalType":"uint256"}],"outputs":[],"stateMutability":"nonpayable"},{"type":"function","name":"transferOwnership","inputs":[{"name":"newOwner","type":"address","internalType":"address"}],"outputs":[],"stateMutability":"nonpayable"},{"type":"function","name":"updateAaveFlashLoanBps","inputs":[],"outputs":[],"stateMutability":"nonpayable"},{"type":"function","name":"upgradeToAndCall","inputs":[{"name":"newImplementation","type":"address","internalType":"address"},{"name":"data","type":"bytes","internalType":"bytes"}],"outputs":[],"stateMutability":"payable"},{"type":"event","name":"AaveFlashLoanFeeUpdated","inputs":[{"name":"newFeeBps","type":"uint256","indexed":true,"internalType":"uint256"},{"name":"oldFeeBps","type":"uint256","indexed":true,"internalType":"uint256"}],"anonymous":false},{"type":"event","name":"Approval","inputs":[{"name":"owner","type":"address","indexed":true,"internalType":"address"},{"name":"approved","type":"address","indexed":true,"internalType":"address"},{"name":"tokenId","type":"uint256","indexed":true,"internalType":"uint256"}],"anonymous":false},{"type":"event","name":"ApprovalForAll","inputs":[{"name":"owner","type":"address","indexed":true,"internalType":"address"},{"name":"operator","type":"address","indexed":true,"internalType":"address"},{"name":"approved","type":"bool","indexed":false,"internalType":"bool"}],"anonymous":false},{"type":"event","name":"DefaultBorrowSafetyMarginUpdated","inputs":[{"name":"oldMargin","type":"uint256","indexed":true,"internalType":"uint256"},{"name":"newMargin","type":"uint256","indexed":true,"internalType":"uint256"}],"anonymous":false},{"type":"event","name":"DefaultMaxLeverageOffsetUpdated","inputs":[{"name":"oldOffset","type":"uint256","indexed":true,"internalType":"uint256"},{"name":"newOffset","type":"uint256","indexed":true,"internalType":"uint256"}],"anonymous":false},{"type":"event","name":"Initialized","inputs":[{"name":"version","type":"uint64","indexed":false,"internalType":"uint64"}],"anonymous":false},{"type":"event","name":"OwnershipTransferred","inputs":[{"name":"previousOwner","type":"address","indexed":true,"internalType":"address"},{"name":"newOwner","type":"address","indexed":true,"internalType":"address"}],"anonymous":false},{"type":"event","name":"PositionBurned","inputs":[{"name":"tokenId","type":"uint256","indexed":true,"internalType":"uint256"},{"name":"owner","type":"address","indexed":true,"internalType":"address"}],"anonymous":false},{"type":"event","name":"PositionMinted","inputs":[{"name":"tokenId","type":"uint256","indexed":true,"internalType":"uint256"},{"name":"owner","type":"address","indexed":true,"internalType":"address"},{"name":"strataxProxy","type":"address","indexed":false,"internalType":"address"},{"name":"collateralToken","type":"address","indexed":false,"internalType":"address"},{"name":"borrowToken","type":"address","indexed":false,"internalType":"address"}],"anonymous":false},{"type":"event","name":"StrataxBeaconUpdated","inputs":[{"name":"oldBeacon","type":"address","indexed":true,"internalType":"address"},{"name":"newBeacon","type":"address","indexed":true,"internalType":"address"}],"anonymous":false},{"type":"event","name":"Transfer","inputs":[{"name":"from","type":"address","indexed":true,"internalType":"address"},{"name":"to","type":"address","indexed":true,"internalType":"address"},{"name":"tokenId","type":"uint256","indexed":true,"internalType":"uint256"}],"anonymous":false},{"type":"event","name":"Upgraded","inputs":[{"name":"implementation","type":"address","indexed":true,"internalType":"address"}],"anonymous":false},{"type":"error","name":"AddressEmptyCode","inputs":[{"name":"target","type":"address","internalType":"address"}]},{"type":"error","name":"ERC1967InvalidImplementation","inputs":[{"name":"implementation","type":"address","internalType":"address"}]},{"type":"error","name":"ERC1967NonPayable","inputs":[]},{"type":"error","name":"ERC721EnumerableForbiddenBatchMint","inputs":[]},{"type":"error","name":"ERC721IncorrectOwner","inputs":[{"name":"sender","type":"address","internalType":"address"},{"name":"tokenId","type":"uint256","internalType":"uint256"},{"name":"owner","type":"address","internalType":"address"}]},{"type":"error","name":"ERC721InsufficientApproval","inputs":[{"name":"operator","type":"address","internalType":"address"},{"name":"tokenId","type":"uint256","internalType":"uint256"}]},{"type":"error","name":"ERC721InvalidApprover","inputs":[{"name":"approver","type":"address","internalType":"address"}]},{"type":"error","name":"ERC721InvalidOperator","inputs":[{"name":"operator","type":"address","internalType":"address"}]},{"type":"error","name":"ERC721InvalidOwner","inputs":[{"name":"owner","type":"address","internalType":"address"}]},{"type":"error","name":"ERC721InvalidReceiver","inputs":[{"name":"receiver","type":"address","internalType":"address"}]},{"type":"error","name":"ERC721InvalidSender","inputs":[{"name":"sender","type":"address","internalType":"address"}]},{"type":"error","name":"ERC721NonexistentToken","inputs":[{"name":"tokenId","type":"uint256","internalType":"uint256"}]},{"type":"error","name":"ERC721OutOfBoundsIndex","inputs":[{"name":"owner","type":"address","internalType":"address"},{"name":"index","type":"uint256","internalType":"uint256"}]},{"type":"error","name":"FailedCall","inputs":[]},{"type":"error","name":"InvalidInitialization","inputs":[]},{"type":"error","name":"NotInitializing","inputs":[]},{"type":"error","name":"OwnableInvalidOwner","inputs":[{"name":"owner","type":"address","internalType":"address"}]},{"type":"error","name":"OwnableUnauthorizedAccount","inputs":[{"name":"account","type":"address","internalType":"address"}]},{"type":"error","name":"SafeERC20FailedOperation","inputs":[{"name":"token","type":"address","internalType":"address"}]},{"type":"error","name":"UUPSUnauthorizedCallContext","inputs":[]},{"type":"error","name":"UUPSUnsupportedProxiableUUID","inputs":[{"name":"slot","type":"bytes32","internalType":"bytes32"}]}],"bytecode":{"object":"0x60a080604052346029573060805261535f908161002e823960805181818161102e01526111d30152f35b5f80fdfe60806040526004361015610011575f80fd5b5f3560e01c80629a9b7b1461033357806301ffc9a71461032e57806306fdde0314610329578063080779bb14610324578063081812fc1461031f578063095ea7b31461031a578063150b7a021461031557806318160ddd14610310578063207d37331461030b57806323b872dd146103065780632abb0624146103015780632f745c59146102fc57806342842e0e146102f757806342966c68146102f257806343024fe5146102ed5780634f1ef286146102e85780634f558e79146102e35780634f6ccce7146102de57806352d1902d146102d957806355f804b3146102d457806362b9b022146102cf5780636352211e146102ca5780636a5d8e8f146102c557806370a08231146102c0578063715018a6146102bb57806371f4a707146102b65780637e68402c146102b15780638114fb5a146102ac57806381346ffb146102a757806383a60e99146102a257806383d011bc1461029d5780638bdbbbf2146102985780638da5cb5b1461029357806395d89b411461028e57806399fbab8814610289578063a03e4bc314610284578063a22cb4651461027f578063a4f4acc51461027a578063ac3af20814610275578063ad3cb1cc14610270578063b14573dc1461026b578063b88d4fde14610266578063c0c7347e14610261578063c415b95c1461025c578063c87b56dd14610257578063c928dbf714610252578063e985e9c51461024d578063eb02c30114610248578063f2fde38b146102435763f9ae32841461023e575f80fd5b611fdb565b611fae565b611f14565b611ed9565b611d56565b611ba9565b611b81565b611b64565b611b08565b611a98565b611a51565b611a15565b6119ed565b611918565b6118f0565b61187b565b6117be565b61178a565b61174e565b611701565b6116b0565b6115df565b6114ff565b6114ce565b6114b1565b61144a565b611423565b611379565b61135b565b61133e565b611218565b6111c1565b611165565b611134565b610fec565b610b59565b610a7c565b610a47565b610a14565b6109e6565b6109cf565b610968565b6108cf565b61085c565b610772565b610717565b610610565b610450565b610375565b610346565b5f91031261034257565b5f80fd5b34610342575f366003190112610342576020600954604051908152f35b6001600160e01b031981160361034257565b346103425760203660031901126103425760043561039281610363565b63ffffffff60e01b16630a85bd0160e11b81149081156103bb575b506040519015158152602090f35b63780e9d6360e01b8114915081156103d5575b505f6103ad565b6380ac58cd60e01b811491508115610407575b81156103f6575b505f6103ce565b6301ffc9a760e01b1490505f6103ef565b635b5e139f60e01b811491506103e8565b805180835260209291819084018484015e5f828201840152601f01601f1916010190565b90602061044d928181520190610418565b90565b34610342575f366003190112610342576040515f5f51602061520a5f395f51905f525461047c8161217a565b808452906001811690811561051e57506001146104b4575b6104b0836104a481850382610f30565b6040519182918261043c565b0390f35b5f51602061520a5f395f51905f525f9081527f37c58c799b6609234b945e882912ee9ad34948a1dfaa20a97485e1a7752bbf81939250905b808210610504575090915081016020016104a4610494565b9192600181602092548385880101520191019092916104ec565b60ff191660208086019190915291151560051b840190910191506104a49050610494565b6001600160a01b0381160361034257565b80516001600160a01b039081168352602080830151821690840152604080830151909116908301526060808201511515908301526080908101511515910152565b604081016040825282518091526020606083019301905f5b8181106105fa575050506020818303910152602080835192838152019201905f5b8181106105da5750505090565b909192602060a0826105ef6001948851610553565b0194019291016105cd565b82518552602094850194909201916001016105ac565b346103425760403660031901126103425760043561062d81610542565b602435610639826129ba565b908181111561071057505b61064d8161227e565b90610657816122da565b925f5b828110610673575050506104b060405192839283610594565b80610680600192846124f0565b8061068b838861233d565b525f52600a60205260405f206106f46106eb6002604051936106ac85610f10565b805460a088811b89900391821687528289015482166020880152929091015490811660408601529081901c60ff16151560608501525b60a81c60ff1690565b15156080830152565b6106fe828861233d565b52610709818761233d565b500161065a565b9050610644565b34610342576020366003190112610342576020610760600435610739816135f9565b505f9081525f5160206152ca5f395f51905f5260205260409020546001600160a01b031690565b6040516001600160a01b039091168152f35b346103425760403660031901126103425760043561078f81610542565b6024359061079c826135f9565b33151580610849575b80610838575b61082557610823926108049181906001600160a01b0385811691167f8c5be1e5ebec7d5bd14f71427d1e84f3dd0314c0f7b2291e5b200ac8c7c3b9255f80a45f525f5160206152ca5f395f51905f5260205260405f2090565b80546001600160a01b0319166001600160a01b03909216919091179055565b005b63a9fbf51f60e01b5f523360045260245ffd5b506108433382613574565b156107ab565b506001600160a01b0381163314156107a5565b3461034257608036600319011261034257610878600435610542565b610883602435610542565b6064356001600160401b03811161034257366023820112156103425780600401356001600160401b038111610342573691016024011161034257604051630a85bd0160e11b8152602090f35b34610342575f3660031901126103425760205f51602061528a5f395f51905f5254604051908152f35b6001600160a01b03165f9081527f80bb2b638cc20bc4d0a60d66940f3ab4a00c1d7b313497ca82fb0b4ab00793056020526040902090565b6001600160a01b03165f9081527f80bb2b638cc20bc4d0a60d66940f3ab4a00c1d7b313497ca82fb0b4ab00793036020526040902090565b346103425760203660031901126103425760043561098581610542565b60018060a01b03165f52600b602052602060405f2054604051908152f35b6060906003190112610342576004356109bb81610542565b906024356109c881610542565b9060443590565b34610342576108236109e0366109a3565b91612356565b34610342575f366003190112610342576009545f198101908111610a0f57602090604051908152f35b6124a1565b34610342576040366003190112610342576020610a3f600435610a3681610542565b602435906124f0565b604051908152f35b3461034257610823610a58366109a3565b9060405192610a68602085610f30565b5f8452610a76838383612356565b3361421c565b34610342576020366003190112610342576004355f818152600a60205260409020600201546001600160a01b03163303610b1457610ab9816135f9565b5f828152600a60205260409020600201805461ffff60a01b1916600160a81b179055610ae482613628565b6001600160a01b0316907fae16e25f0f6a18c4084cbb31aeadfd354e2283472ddb2f0dd1e6b6f3e55819ed5f80a3005b60405162461bcd60e51b815260206004820152601c60248201527f43616c6c6572206d75737420626520537472617461782070726f7879000000006044820152606490fd5b3461034257608036600319011261034257600435610b7681610542565b60243590610b8382610542565b60443560643591610b9582151561255d565b610ba36127108410156125a2565b610bad8482613827565b60405163313ce56760e01b81526020816004816001600160a01b0386165afa908115610e27575f91610edd575b5060405163313ce56760e01b8152906020826004816001600160a01b038a165afa918215610e27575f92610eac575b50600254610c2d90610c21906001600160a01b031681565b6001600160a01b031690565b604051633e15014160e01b81526001600160a01b0385166004820152969061014090889060249082905afa908115610e2757610cba975f92610e71575b50610c7682151561267e565b600454602090610c9090610c21906001600160a01b031681565b6040516341976e0960e01b81526001600160a01b0390971660048801529598899081906024820190565b0381885afa948515610e2757610d01985f96610e4d575b506040516341976e0960e01b81526001600160a01b03909216600483015290976020918991829081906024820190565b03915afa928315610e27576004975f94610e2c575b50610d228515156126d9565b610d2d841515612730565b60065492600854946020610d4e610c21610c2160055460018060a01b031690565b6040516375c6976360e01b81529b8c9182905afa968715610e2757610dc89a5f98610deb575b509160ff93929184926007549a610d89610f51565b9c8d5260208d015260408c015260608b01521660808901521660a087015260c086015260e0850152610100840152610120830152610140820152613a50565b805160208083015160409384015184519384529183015291810191909152606090f35b60ff949391985091610e15859360203d602011610e20575b610e0d8183610f30565b8101906126ca565b989193945091610d74565b503d610e03565b612600565b610e4691945060203d602011610e2057610e0d8183610f30565b925f610d16565b602092919650610e6990833d8511610e2057610e0d8183610f30565b959091610cd1565b610e949192506101403d8111610ea5575b610e8c8183610f30565b81019061260b565b50505050505050509050905f610c6a565b503d610e82565b610ecf91925060203d602011610ed6575b610ec78183610f30565b8101906125e7565b905f610c09565b503d610ebd565b610ef6915060203d602011610ed657610ec78183610f30565b5f610bda565b634e487b7160e01b5f52604160045260245ffd5b60a081019081106001600160401b03821117610f2b57604052565b610efc565b90601f801991011681019081106001600160401b03821117610f2b57604052565b60405190610f6161016083610f30565b565b60405190610f6160a083610f30565b90610f616040519283610f30565b6001600160401b038111610f2b57601f01601f191660200190565b929192610fa782610f80565b91610fb56040519384610f30565b829481845281830111610342578281602093845f960137010152565b9080601f830112156103425781602061044d93359101610f9b565b60403660031901126103425760043561100481610542565b6024356001600160401b03811161034257611023903690600401610fd1565b906001600160a01b037f000000000000000000000000000000000000000000000000000000000000000016308114908115611112575b5061110357611066613c70565b6040516352d1902d60e01b8152916020836004816001600160a01b0386165afa5f93816110e2575b506110af57634c9c8ce360e01b5f526001600160a01b03821660045260245ffd5b905f51602061526a5f395f51905f5283036110ce57610823925061473b565b632a87526960e21b5f52600483905260245ffd5b6110fc91945060203d602011610e2057610e0d8183610f30565b925f61108e565b63703e46dd60e11b5f5260045ffd5b5f51602061526a5f395f51905f52546001600160a01b0316141590505f611059565b346103425760203660031901126103425760206001600160a01b0361115a600435613c4a565b161515604051908152f35b34610342576020366003190112610342576004355f51602061528a5f395f51905f52548110156111ab576111989061277c565b905460405160039290921b1c8152602090f35b63295f44f760e21b5f525f60045260245260445ffd5b34610342575f366003190112610342577f00000000000000000000000000000000000000000000000000000000000000006001600160a01b031630036111035760206040515f51602061526a5f395f51905f528152f35b34610342576020366003190112610342576004356001600160401b038111610342573660238201121561034257611259903690602481600401359101610f9b565b611261613c70565b80516001600160401b038111610f2b5761128581611280600c5461217a565b6127ac565b602091601f82116001146112c3576112b3925f91836112b8575b50508160011b915f199060031b1c19161790565b600c55005b015190505f8061129f565b600c5f52601f198216927fdf6966c971051c3d54ec59162606531493a51404a002842f56009d7e5cf4a8c7915f5b8581106113265750836001951061130e575b505050811b01600c55005b01515f1960f88460031b161c191690555f8080611303565b919260206001819286850151815501940192016112f1565b34610342575f366003190112610342576020600754604051908152f35b346103425760203660031901126103425760206107606004356135f9565b346103425760203660031901126103425760043561139681610542565b61139f816129ba565b6113a88161227e565b906113b2816122da565b925f5b8281106113ce575050506104b060405192839283610594565b806113db600192846124f0565b806113e6838861233d565b525f52600a60205260405f206114076106eb6002604051936106ac85610f10565b611411828861233d565b5261141c818761233d565b50016113b5565b34610342576020366003190112610342576020610a3f60043561144581610542565b6129ba565b34610342575f36600319011261034257611462613c70565b5f51602061522a5f395f51905f5280546001600160a01b031981169091555f906001600160a01b03167f8be0079c531659141344cd1fd0a4f28419497f9722a3daafe3b4186f6b6457e08280a3005b34610342575f366003190112610342576020600654604051908152f35b34610342575f366003190112610342575f546040516001600160a01b039091168152602090f35b8015150361034257565b346103425760a03660031901126103425760043561151c81610542565b6024359061152982610542565b60443561153581610542565b60643590611542826114f5565b608435936001600160401b0385116103425760a06003198636030112610342576040519361156f85610f10565b85600401358552602486013560208601526044860135604086015260648601356001600160401b038111610342576115c4966115b360849260043691840101610fd1565b606088015201356080860152612b2e565b604080519283526001600160a01b0391909116602083015290f35b34610342575f366003190112610342576001545f9060209061160b90610c21906001600160a01b031681565b60046040518094819363074b2e4360e01b83525af18015610e27576001600160801b03915f91611681575b50166116456127108210612f15565b6008549081810361165257005b61165b81600855565b7f8fe08a4ca8e5a487268e70fc4dcce58e51d4238ed1c9947f515e6d46c1706c5f5f80a3005b6116a3915060203d6020116116a9575b61169b8183610f30565b810190612ef6565b5f611636565b503d611691565b34610342576020366003190112610342576004356116e06001600160a01b036116d883613c4a565b161515612f5a565b5f52600a602052602060018060a01b03600260405f20015416604051908152f35b34610342575f366003190112610342576004546040516001600160a01b039091168152602090f35b60409060031901126103425760043561174181610542565b9060243561044d81610542565b3461034257602061176861176136611729565b9190614078565b908161177a575b506040519015158152f35b611784915061411a565b5f61176f565b34610342575f366003190112610342575f51602061522a5f395f51905f52546040516001600160a01b039091168152602090f35b34610342575f366003190112610342576040515f5f51602061530a5f395f51905f52546117ea8161217a565b808452906001811690811561051e5750600114611811576104b0836104a481850382610f30565b5f51602061530a5f395f51905f525f9081527ff4bad0a69248f59680a4f2b3000328cec71a413447c96781cfe5996daa8c456e939250905b808210611861575090915081016020016104a4610494565b919260018160209254838588010152019101909291611849565b34610342576020366003190112610342576004355f908152600a60209081526040918290208054600182015460029092015484516001600160a01b0392831681529282169383019390935282169281019290925260ff60a082811c82161515606085015260a89290921c161515608083015290f35b34610342575f366003190112610342576001546040516001600160a01b039091168152602090f35b346103425760403660031901126103425760043561193581610542565b602435611941816114f5565b33156119da576001600160a01b0382169182156119c75761197a90611965336108f8565b9060018060a01b03165f5260205260405f2090565b60ff1981541660ff831515161790557f17307eab39ab6107e8899845ad3d59bd9653f200f220920489ca2b5937696c31604051806119c2339482919091602081019215159052565b0390a3005b82630b61174360e31b5f5260045260245ffd5b63a9fbf51f60e01b5f525f60045260245ffd5b34610342575f366003190112610342576002546040516001600160a01b039091168152602090f35b34610342575f366003190112610342576003546040516001600160a01b039091168152602090f35b60405190611a4c602083610f30565b5f8252565b34610342575f366003190112610342576104b0604051611a72604082610f30565b60058152640352e302e360dc1b6020820152604051918291602083526020830190610418565b3461034257602036600319011261034257600435611ab4613c70565b612710811015611ac357600655005b60405162461bcd60e51b815260206004820152601960248201527f496e766c61696420626f72726f7753616665744d617267696e000000000000006044820152606490fd5b3461034257608036600319011261034257600435611b2581610542565b60243590611b3282610542565b604435606435926001600160401b03841161034257611b58610823943690600401610fd1565b92610a76838383612356565b34610342575f366003190112610342576020600854604051908152f35b34610342575f366003190112610342576005546040516001600160a01b039091168152602090f35b3461034257602036600319011261034257600435611bc6816135f9565b50611bcf6121b2565b805115611d3b5781825f9372184f03e93ff9f4daa797ed6e38ed64bf6a1f0160401b811015611d15575b50806d04ee2d6d415b85acef8100000000600a921015611cf9575b662386f26fc10000811015611ce4575b6305f5e100811015611cd2575b612710811015611cc2575b6064811015611cb3575b1015611ca8575b611c896021611c5e600186016142e1565b948501015b5f1901916f181899199a1a9b1b9c1cb0b131b232b360811b600a82061a8353600a900490565b908115611c9957611c8990611c63565b50506104b0916104a491612fb8565b600190920191611c4d565b60029060649004940193611c46565b6004906127109004940193611c3c565b6008906305f5e1009004940193611c31565b601090662386f26fc100009004940193611c24565b6020906d04ee2d6d415b85acef81000000009004940193611c14565b6040945072184f03e93ff9f4daa797ed6e38ed64bf6a1f0160401b90049050600a611bf9565b50506104b0604051611d4e602082610f30565b5f81526104a4565b34610342576020366003190112610342576004356001600160401b038111610342576101006003198236030112610342575f5160206152ea5f395f51905f5254906001600160401b03611db860ff604085901c1615936001600160401b031690565b1680159081611ed1575b6001149081611ec7575b159081611ebe575b50611eaf57611e1b9082611e0e60016001600160401b03195f5160206152ea5f395f51905f525416175f5160206152ea5f395f51905f5255565b611e7a575b600401613327565b611e2157005b611e4b60ff60401b195f5160206152ea5f395f51905f5254165f5160206152ea5f395f51905f5255565b604051600181527fc7f505b2f371ae2175ee4913f4499e1f2633a7b5936321eed1cdaeb6115181d290602090a1005b611eaa600160401b60ff60401b195f5160206152ea5f395f51905f525416175f5160206152ea5f395f51905f5255565b611e13565b63f92ee8a960e01b5f5260045ffd5b9050155f611dd4565b303b159150611dcc565b839150611dc2565b3461034257602060ff611ef8611965611ef136611729565b91906108f8565b54166040519015158152f35b60a081019291610f619190610553565b3461034257602036600319011261034257600435611f306122b0565b50611f456001600160a01b036116d883613c4a565b5f52600a6020526104b060405f20611fa26106eb600260405193611f6885610f10565b80546001600160a01b039081168652600182015481166020870152910154908116604085015260a081901c60ff16151560608501526106e2565b60405191829182611f04565b3461034257602036600319011261034257610823600435611fce81610542565b611fd6613c70565b613588565b3461034257608036600319011261034257600435611ff881610542565b6024356044359161200883610542565b6064359261201584610542565b6001546001600160a01b03166002549094906001600160a01b03166003549092906001600160a01b03166004549092906001600160a01b03166005549091906001600160a01b031692600654946007549661206e610f51565b6001600160a01b03909b168b526001600160a01b031660208b01526001600160a01b031660408a01523060608a0152608089018890526001600160a01b031660a08901526001600160a01b031660c08801526001600160a01b031660e08701526001600160a01b0316610100860152610120850152610140840152604051630aa0ff6160e21b60208201529283906121099060248301612a43565b03601f198101845261211b9084610f30565b60405160609190911b6001600160601b0319166020820190815260348083019390935291815261214c605482610f30565b5190205f546001600160a01b03169161216492614444565b6040516001600160a01b03919091168152602090f35b90600182811c921680156121a8575b602083101461219457565b634e487b7160e01b5f52602260045260245ffd5b91607f1691612189565b604051905f82600c54916121c58361217a565b808352926001811690811561224857506001146121e9575b610f6192500383610f30565b50600c5f90815290917fdf6966c971051c3d54ec59162606531493a51404a002842f56009d7e5cf4a8c75b81831061222c575050906020610f61928201016121dd565b6020919350806001915483858901015201910190918492612214565b60209250610f6194915060ff191682840152151560051b8201016121dd565b6001600160401b038111610f2b5760051b60200190565b9061228882612267565b6122956040519182610f30565b82815280926122a6601f1991612267565b0190602036910137565b604051906122bd82610f10565b5f6080838281528260208201528260408201528260608201520152565b906122e482612267565b6122f16040519182610f30565b8281528092612302601f1991612267565b01905f5b82811061231257505050565b60209061231d6122b0565b82828501015201612306565b634e487b7160e01b5f52603260045260245ffd5b80518210156123515760209160051b010190565b612329565b9091906001600160a01b038316801561248e5761237283613c4a565b933361247e575b6001600160a01b03851691849083158015612460575b61239884610930565b600181540190556123c184610804855f525f5160206152aa5f395f51905f5260205260405f2090565b8282867fddf252ad1be2c89b69c2b068fc378daa952ba7f163c4a11628f55a4df523b3ef5f80a41561244a576123f682614972565b830361243a575b50506001600160a01b0382160361241357505050565b6364283d7b60e01b5f526001600160a01b039081166004526024919091521660445260645ffd5b612443916149df565b5f836123fd565b8381146123f65761245b82886148a8565b6123f6565b612469836144dc565b61247288610930565b80545f1901905561238f565b612489843387614cbb565b612379565b633250574960e11b5f525f60045260245ffd5b634e487b7160e01b5f52601160045260245ffd5b61271003906127108211610a0f57565b61270f19810191908211610a0f57565b5f19810191908211610a0f57565b91908203918211610a0f57565b6124f9816129ba565b8210156125405760018060a01b03165f527f645e039705490088daad89bae25049a34f4a9072d398537b1ab2425f24cbed0060205260405f20905f5260205260405f205490565b63295f44f760e21b5f5260018060a01b031660045260245260445ffd5b1561256457565b60405162461bcd60e51b81526020600482015260166024820152750436f6c6c61746572616c206d757374206265203e20360541b6044820152606490fd5b156125a957565b60405162461bcd60e51b8152602060048201526016602482015275098caeccae4c2ceca40daeae6e840c4ca407c7a4062f60531b6044820152606490fd5b90816020910312610342575160ff811681036103425790565b6040513d5f823e3d90fd5b9190826101409103126103425781519160208101519160408201519160608101519160808201519160a0810151612641816114f5565b9160c0820151612650816114f5565b9160e081015161265f816114f5565b91610120610100830151612672816114f5565b92015161044d816114f5565b1561268557565b60405162461bcd60e51b815260206004820152601e60248201527f4173736574206e6f7420757361626c6520617320636f6c6c61746572616c00006044820152606490fd5b90816020910312610342575190565b156126e057565b60405162461bcd60e51b815260206004820152602260248201527f436f6c6c61746572616c20746f6b656e207072696365206d757374206265203e604482015261020360f41b6064820152608490fd5b1561273757565b60405162461bcd60e51b815260206004820152601e60248201527f426f72726f7720746f6b656e207072696365206d757374206265203e203000006044820152606490fd5b5f51602061528a5f395f51905f5254811015612351575f51602061528a5f395f51905f525f5260205f2001905f90565b601f81116127b8575050565b600c5f5260205f20906020601f840160051c830193106127f2575b601f0160051c01905b8181106127e7575050565b5f81556001016127dc565b90915081906127d3565b601f8111612808575050565b5f51602061520a5f395f51905f525f5260205f20906020601f840160051c8301931061284e575b601f0160051c01905b818110612843575050565b5f8155600101612838565b909150819061282f565b601f821161286557505050565b5f5260205f20906020601f840160051c8301931061289d575b601f0160051c01905b818110612892575050565b5f8155600101612887565b909150819061287e565b9081516001600160401b038111610f2b576128e6816128d35f51602061530a5f395f51905f525461217a565b5f51602061530a5f395f51905f52612858565b602092601f821160011461292657612915929382915f926112b85750508160011b915f199060031b1c19161790565b5f51602061530a5f395f51905f5255565b5f51602061530a5f395f51905f525f52601f198216937ff4bad0a69248f59680a4f2b3000328cec71a413447c96781cfe5996daa8c456e915f5b8681106129a2575083600195961061298a575b505050811b015f51602061530a5f395f51905f5255565b01515f1960f88460031b161c191690555f8080612973565b91926020600181928685015181550194019201612960565b6001600160a01b038116156129d6576129d290610930565b5490565b6322718ad960e21b5f525f60045260245ffd5b156129f057565b60405162461bcd60e51b815260206004820152601b60248201527f43616e6e6f74206d696e7420746f207a65726f206164647265737300000000006044820152606490fd5b5f198114610a0f5760010190565b81516001600160a01b03168152610160810192916101409081906020818101516001600160a01b0316908501526040818101516001600160a01b0316908501526060818101516001600160a01b0316908501526080818101519085015260a0808201516001600160a01b03169085015260c0818101516001600160a01b03169085015260e0818101516001600160a01b031690850152610100818101516001600160a01b0316908501526101208101516101208501520151910152565b9594939092612b299260809488526020880152604087015260a0606087015260a0860190610418565b930152565b9092949360018060a01b03821692612b478415156129e9565b612b518186613827565b60095494612b66612b6187612a35565b600955565b6001548690612cc690612c7590612c83906001600160a01b03166002546001600160a01b03166003546001600160a01b0316600454612c4d906001600160a01b0316600554612c3c906001600160a01b031691612c0160065495612bf160075498612be1612bd2610f51565b6001600160a01b03909c168c52565b6001600160a01b031660208b0152565b6001600160a01b03166040890152565b306060880152608087018b90526001600160a01b038c1660a08801526001600160a01b038d1660c08801526001600160a01b031660e0870152565b6001600160a01b0316610100850152565b610120830152610140820152604051630aa0ff6160e21b602082015292839160248301612a43565b03601f198101835282610f30565b6040513360601b6001600160601b031916602082019081526034820185905290612cb08160548101612c75565b5190205f549091906001600160a01b0316613cc5565b98612d99612cd2610f63565b6001600160a01b03851681526001600160a01b03861660208201526001600160a01b038c166040820152600160608201525f6080820152612d1b845f52600a60205260405f2090565b815181546001600160a01b03199081166001600160a01b0392831617835560208401516001840180549092169083161790556040830151600290920180546060850151608090950151939092166001600160b01b03199092169190911792151560a01b60ff60a01b169290921790151560a81b60ff60a81b16179055565b6001600160a01b038a165f908152600b6020526040902082905515612ec357612dc29030613d71565b602083018051612dec906001600160a01b03841690612de390303384613eaa565b8a835191613f37565b835190516040850151606086015160809096015190916001600160a01b038c1691823b15610342575f94612e3886926040519a8b9788968795636beac0ab60e11b875260048701612b00565b03925af18015610e275786947faa0dec1aa28451def6911707274ebb6ae1abf2141312f016f4e34c465a64995d94612e8092612ea9575b5085612e79611a3d565b9130613ff0565b604080516001600160a01b038a8116825292831660208201529290911690820152606090a39190565b80612eb75f612ebd93610f30565b80610338565b5f612e6f565b937faa0dec1aa28451def6911707274ebb6ae1abf2141312f016f4e34c465a64995d935084612ef191613d71565b612e80565b9081602091031261034257516001600160801b03811681036103425790565b15612f1c57565b60405162461bcd60e51b8152602060048201526016602482015275496e76616c696420666c617368206c6f616e2066656560501b6044820152606490fd5b15612f6157565b60405162461bcd60e51b815260206004820152601760248201527f506f736974696f6e20646f6573206e6f742065786973740000000000000000006044820152606490fd5b805191908290602001825e015f815290565b610f6190612fda612fd494936040519586936020850190612fa6565b90612fa6565b03601f198101845283610f30565b3561044d81610542565b15612ff957565b60405162461bcd60e51b815260206004820152601e60248201527f496e76616c6964205374726174617820626561636f6e206164647265737300006044820152606490fd5b1561304557565b60405162461bcd60e51b815260206004820152601960248201527f496e76616c6964204161766520706f6f6c2061646472657373000000000000006044820152606490fd5b1561309157565b60405162461bcd60e51b815260206004820152602260248201527f496e76616c6964204161766520646174612070726f7669646572206164647265604482015261737360f01b6064820152608490fd5b156130e857565b60405162461bcd60e51b815260206004820152601c60248201527f496e76616c69642031696e636820726f757465722061646472657373000000006044820152606490fd5b1561313457565b60405162461bcd60e51b815260206004820152601e60248201527f496e76616c69642053747261746178206f7261636c65206164647265737300006044820152606490fd5b1561318057565b60405162461bcd60e51b8152602060048201526015602482015274496e76616c6964206f776e6572206164647265737360581b6044820152606490fd5b604051906131cc604083610f30565b601482527314dd1c985d185e08141bdcda5d1a5bdb8813919560621b6020830152565b604051906131fe604083610f30565b6008825267535452582d504f5360c01b6020830152565b903590601e198136030182121561034257018035906001600160401b0382116103425760200191813603831361034257565b91906001600160401b038111610f2b5761326d81613266600c5461217a565b600c612858565b5f601f82116001146132aa57819061329a93945f9261329f5750508160011b915f199060031b1c19161790565b600c55565b013590505f8061129f565b600c5f52601f198216937fdf6966c971051c3d54ec59162606531493a51404a002842f56009d7e5cf4a8c7915f5b86811061330f57508360019596106132f6575b505050811b01600c55565b01355f19600384901b60f8161c191690555f80806132eb565b909260206001819286860135815501940191016132d8565b6133436001600160a01b0361333b83612fe8565b161515612ff2565b5f6020820161335e613357610c2183612fe8565b151561303e565b6040830192613379613372610c2186612fe8565b151561308a565b606081019161339461338d610c2185612fe8565b15156130e1565b60808201906133af6133a8610c2184612fe8565b151561312d565b6133fa6133f560c085016133cf6133c8610c2183612fe8565b1515613179565b6133e86133da6131bd565b6133e26131ef565b90614309565b6133f061487d565b612fe8565b614430565b602061340b610c21610c2184612fe8565b60046040518098819363074b2e4360e01b83525af1918215610e27576133f06134d960a0966133f06134bc6135369b6133f061349f6134f6996133f06135199f8e61346e6135139f6001600160801b0390613484945f91613555575b5016600855565b6133f061347e60e0830183613215565b90613247565b60018060a01b03166001600160601b0360a01b5f5416175f55565b60018060a01b03166001600160601b0360a01b6001541617600155565b60018060a01b03166001600160601b0360a01b6002541617600255565b60018060a01b03166001600160601b0360a01b6003541617600355565b60018060a01b03166001600160601b0360a01b6004541617600455565b01612fe8565b60018060a01b03166001600160601b0360a01b6005541617600555565b6135416126de600655565b61354b604b600755565b610f616001600955565b61356e915060203d6020116116a95761169b8183610f30565b5f613467565b60ff91611965613583926108f8565b541690565b6001600160a01b031680156135e6575f51602061522a5f395f51905f5280546001600160a01b0319811683179091556001600160a01b03167f8be0079c531659141344cd1fd0a4f28419497f9722a3daafe3b4186f6b6457e05f80a3565b631e4fbdf760e01b5f525f60045260245ffd5b61360281613c4a565b906001600160a01b03821615613616575090565b637e27328960e01b5f5260045260245ffd5b61363181613c4a565b6001600160a01b0381168015919082159084905f90836136d1575b61366a835f525f5160206152aa5f395f51905f5260205260405f2090565b80546001600160a01b03191690557fddf252ad1be2c89b69c2b068fc378daa952ba7f163c4a11628f55a4df523b3ef8280a482156136bd57506136ac83614972565b6136b583614a4d565b506136165750565b156136ac576136cc83826148a8565b6136ac565b6136ef835f525f5160206152ca5f395f51905f5260205260405f2090565b80546001600160a01b031916905561370685610930565b8219815401905561364c565b1561371957565b60405162461bcd60e51b815260206004820152602e60248201527f436f6c6c61746572616c20616e6420626f72726f7720746f6b656e73206d757360448201526d1d08189948191a5999995c995b9d60921b6064820152608490fd5b1561377c57565b60405162461bcd60e51b815260206004820152602660248201527f436f6c6c61746572616c20746f6b656e206e6f7420737570706f72746564206260448201526579204161766560d01b6064820152608490fd5b156137d757565b60405162461bcd60e51b815260206004820152602260248201527f426f72726f7720746f6b656e206e6f7420737570706f72746564206279204161604482015261766560f01b6064820152608490fd5b6001600160a01b0381169182156138bb576001600160a01b0381169283156138765761386761387193613862610f619661386c941415613712565b614078565b613775565b61411a565b6137d0565b60405162461bcd60e51b815260206004820152601c60248201527f496e76616c696420626f72726f7720746f6b656e2061646472657373000000006044820152606490fd5b606460405162461bcd60e51b815260206004820152602060248201527f496e76616c696420636f6c6c61746572616c20746f6b656e20616464726573736044820152fd5b60405190608082018281106001600160401b03821117610f2b576040525f6060838281528260208201528260408201520152565b81810292918115918404141715610a0f57565b8115613950570490565b634e487b7160e01b5f52601260045260245ffd5b1561396b57565b606460405162461bcd60e51b815260206004820152602060248201527f44657369726564206c657665726167652065786365656473206d6178696d756d6044820152fd5b9060018201809211610a0f57565b670de0b6b3a7640000019081670de0b6b3a764000011610a0f57565b91908201809211610a0f57565b604d8111610a0f57600a0a90565b156139fb57565b60405162461bcd60e51b815260206004820152602760248201527f496e73756666696369656e7420626f72726f7720746f20726570617920666c6160448201526639b4103637b0b760c91b6064820152608490fd5b613a586138ff565b9060208101613a698151151561255d565b613a78612710835110156125a2565b60408201613a88815115156126d9565b60608301613a9881511515612730565b60c08401613aa88151151561267e565b6305f5e100613acc613ac3613abd84516124b5565b83613946565b87511115613964565b81519460e0870190828251613af86101408b0151998b61010081019b6101208d51920194855193614645565b808b5111613c42575b5082519051613b0f91613933565b8951613b1a91613933565b90613b2491613946565b908160408b01525190613b36916124e3565b958751613b42906124c5565b613b4c9088613933565b612710900490818a5251613b5f91613933565b6127109004958851613b70916139d9565b8551613b7b91613933565b9260808801938451613b8c906139e6565b613b9591613946565b9051613ba091613933565b9051613bab91613933565b90613bb591613946565b9160a08601928351613bc6906139e6565b613bcf91613933565b8151613bda91613946565b9460208801958652875190613bee916139d9565b94519051613bfb91613933565b9051613c06906139e6565b613c0f91613933565b91519051613c1c906139e6565b613c2591613933565b613c2e91613946565b1015613c39906139f4565b51606082015290565b8a525f613b01565b5f9081525f5160206152aa5f395f51905f5260205260409020546001600160a01b031690565b5f51602061522a5f395f51905f52546001600160a01b03163303613c9057565b63118cdaa760e01b5f523360045260245ffd5b6001600160a01b03909116815260406020820181905261044d92910190610418565b90613d16612c7591613d026104589460405195613ce56020820188610f30565b808752614d926020880139612c7560405193849260208401613ca3565b604051928391612fd4602084018097612fa6565b51905ff5906001600160a01b03821615613d2c57565b60405162461bcd60e51b815260206004820152601d60248201527f426561636f6e50726f7879206465706c6f796d656e74206661696c65640000006044820152606490fd5b604051602092613d818483610f30565b5f82526001600160a01b03831690811561248e576001600160a01b03613da7828661450a565b16613e9757833b613dba575b5050505050565b918495939491613de3935f604051809681958294630a85bd0160e11b84528433600486016141bc565b03925af15f9181613e68575b50613e28575050613dfe6141ed565b8051929083613e2357633250574960e11b5f526001600160a01b03831660045260245ffd5b019050fd5b9092506001600160e01b03191663757a42ff60e11b01613e4d57505f80808080613db3565b633250574960e11b5f526001600160a01b031660045260245ffd5b613e89919250853d8711613e90575b613e818183610f30565b8101906141a7565b905f613def565b503d613e77565b6339e3563760e11b5f525f60045260245ffd5b6040516323b872dd60e01b5f9081526001600160a01b039384166004529290931660245260449390935260209060648180865af160015f5114811615613f18575b6040919091525f60605215613efd5750565b635274afe760e01b5f526001600160a01b031660045260245ffd5b6001811516613f2e573d15833b15151616613eeb565b503d5f823e3d90fd5b60405163095ea7b360e01b5f9081526001600160a01b03841660045260248590529193929160209060448180885af19060015f5114821615613fe1575b60405215613f8157505050565b613f8b81846147dd565b15613fc35790613f9b9183614842565b15613fa35750565b635274afe760e01b5f9081526001600160a01b0391909116600452602490fd5b635274afe760e01b5f9081526001600160a01b038416600452602490fd5b90843b15153d15161690613f74565b91939192906001600160a01b0381161561248e5761400e858261450a565b6001600160a01b038116806140305786637e27328960e01b5f5260045260245ffd5b949593949293926001600160a01b038716036140525750610f6193943361421c565b6364283d7b60e01b5f526001600160a01b0380871660045260248490521660445260645ffd5b600254604051633e15014160e01b81526001600160a01b039283166004820152916101409183916024918391165afa8015610e27575f905f905f935f916140ea575b50836140e1575b50826140d9575b50816140d2575090565b9050151590565b91505f6140c8565b1592505f6140c1565b9250505061410791506101403d8111610ea557610e8c8183610f30565b985095505050939150509190925f6140ba565b600254604051633e15014160e01b81526001600160a01b039283166004820152916101409183916024918391165afa8015610e27575f905f925f91614179575b5082614170575b508161416b575090565b905090565b1591505f614161565b91505061419591506101403d8111610ea557610e8c8183610f30565b9850965050935050505090915f61415a565b90816020910312610342575161044d81610363565b6001600160a01b03918216815291166020820152604081019190915260806060820181905261044d92910190610418565b3d15614217573d906141fe82610f80565b9161420c6040519384610f30565b82523d5f602084013e565b606090565b939193843b61422c575050505050565b61424d6020936040519586948594630a85bd0160e11b8652600486016141bc565b03815f6001600160a01b0387165af15f91816142c0575b5061429e57506142726141ed565b805191908261429757633250574960e11b5f526001600160a01b03821660045260245ffd5b6020915001fd5b6001600160e01b03191663757a42ff60e11b01613e4d57505f80808080613db3565b6142da91925060203d602011613e9057613e818183610f30565b905f614264565b906142eb82610f80565b6142f86040519182610f30565b82815280926122a6601f1991610f80565b61431161487d565b61431961487d565b8051906001600160401b038211610f2b5761434a826143455f51602061520a5f395f51905f525461217a565b6127fc565b602090601f831160011461439157918061437d92610f6195945f926112b85750508160011b915f199060031b1c19161790565b5f51602061520a5f395f51905f52556128a7565b5f51602061520a5f395f51905f525f52601f19831691907f37c58c799b6609234b945e882912ee9ad34948a1dfaa20a97485e1a7752bbf81925f5b8181106144185750916001939185610f6197969410614400575b505050811b015f51602061520a5f395f51905f52556128a7565b01515f1960f88460031b161c191690555f80806143e6565b929360206001819287860151815501950193016143cc565b610f619061443c61487d565b611fd661487d565b91612c756144cd61044d94612c7561448a610c2196613d026104589461446c60208701610f72565b95808752614d926020880139612c7560405193849260208401613ca3565b5190206040516001600160f81b0319602082019081523060601b6001600160601b0319166021830152603582019590955260558101919091529182906075820190565b5190206001600160a01b031690565b6144fa905f525f5160206152ca5f395f51905f5260205260405f2090565b80546001600160a01b0319169055565b61451382613c4a565b916001600160a01b03831680159081156145e3575b6001600160a01b0384169182159081156145ce575b61455f86610804875f525f5160206152aa5f395f51905f5260205260405f2090565b8484847fddf252ad1be2c89b69c2b068fc378daa952ba7f163c4a11628f55a4df523b3ef5f80a4156145b85761459484614972565b156145a557505061044d9150614a4d565b036145af57505090565b61044d916149df565b818314614594576145c984876148a8565b614594565b6145d786610930565b6001815401905561453d565b6145ec836144dc565b6145f585610930565b80545f19019055614528565b1561460857565b60405162461bcd60e51b815260206004820152601560248201527424b73b30b634b21032b33332b1ba34bb3290262a2b60591b6044820152606490fd5b93929184156146f6576146616146679161466f939695966124e3565b84613933565b612710900490565b9061467b821515614601565b61468761271093614b27565b9383945b8085111561469b57505050505090565b90919293946146bc6146b66146b088856124e3565b60011c90565b876139d9565b956146c98585888a614b93565b156146e55750506146d9856139af565b905b939291909361468b565b9150946146f1906124d5565b6146db565b60405162461bcd60e51b815260206004820152601a60248201527f4173736574206e6f7420636f6c6c61746572616c697a61626c650000000000006044820152606490fd5b90813b156147bc575f51602061526a5f395f51905f5280546001600160a01b0319166001600160a01b0384169081179091557fbc7cd75a20ee27fd9adebab32041f755214dbc6bffa90cc0225b39da2e5c2d3b5f80a28051156147a4576147a191614c48565b50565b5050346147ad57565b63b398979f60e01b5f5260045ffd5b50634c9c8ce360e01b5f9081526001600160a01b0391909116600452602490fd5b60405163095ea7b360e01b5f9081526001600160a01b03909316600452602483905290929160209060448180875af19260015f5114841615614820575b50604052565b60018492941516614839573b15153d151616915f61481a565b833d5f823e3d90fd5b92916040519163095ea7b360e01b5f5260018060a01b031660045260245260205f60448180875af19260015f51148416156148205750604052565b60ff5f5160206152ea5f395f51905f525460401c161561489957565b631afcd79f60e31b5f5260045ffd5b905f6149276148b6846129ba565b928083525f5160206151ea5f395f51905f5260205260408320549460018060a01b031683527f645e039705490088daad89bae25049a34f4a9072d398537b1ab2425f24cbed006020526040832094848103614935575b505f525f5160206151ea5f395f51905f5260205260405f2090565b555f526020525f6040812055565b8484528560205261496b6040852054828652876020528060408720555f525f5160206151ea5f395f51905f5260205260405f2090565b555f61490c565b5f51602061528a5f395f51905f525490805f525f51602061524a5f395f51905f526020528160405f2055600160401b821015610f2b576149c7826001610f6194015f51602061528a5f395f51905f525561277c565b90919082549060031b91821b915f19901b1916179055565b906149e9826129ba565b5f19810192908311610a0f5760018060a01b03165f527f645e039705490088daad89bae25049a34f4a9072d398537b1ab2425f24cbed0060205260405f20825f526020528060405f20555f525f5160206151ea5f395f51905f5260205260405f2055565b5f51602061528a5f395f51905f52545f198101908111610a0f57815f525f51602061524a5f395f51905f52602052614a8960405f20549161277c565b90549060031b1c614a9d816149c78461277c565b5f525f51602061524a5f395f51905f5260205260405f20555f525f51602061524a5f395f51905f526020525f60408120555f51602061528a5f395f51905f52548015614b13575f1901614b02614af28261277c565b8154905f199060031b1b19169055565b5f51602061528a5f395f51905f5255565b634e487b7160e01b5f52603160045260245ffd5b80151580614b88575b15614b55578061271003906127108211610a0f5761271014613950576305f5e1000490565b60405162461bcd60e51b815260206004820152600b60248201526a24b73b30b634b210262a2b60a91b6044820152606490fd5b506127108110614b30565b929161270f198401848111610a0f5780670de0b6b3a76400000290670de0b6b3a7640000820403610a0f57614bce6127108092049485613933565b04830193848411610a0f5780670de0b6b3a76400000290670de0b6b3a7640000820403610a0f57614c0d91614c0291613933565b6305f5e10090613946565b90670de0b6b3a7640000821015614c4057614c3661466792614c31614c3b956139bd565b6124e3565b613933565b101590565b505050505f90565b905f8091602081519101845af48080614ca8575b15614c6b57505061044d614d78565b15614c9057639996b31560e01b5f9081526001600160a01b0391909116600452602490fd5b3d15155f036126005763d6bda27560e01b5f5260045ffd5b503d151580614c5c5750813b1515614c5c565b6001600160a01b038216918215159081614d11575b5015614cdb57505050565b6001600160a01b0316614cfc57637e27328960e01b5f52600482905260245ffd5b63177e802f60e01b5f5260045260245260445ffd5b6001600160a01b038316841491508115614d5f575b508015614d34575b5f614cd0565b505f8381525f5160206152ca5f395f51905f5260205260409020546001600160a01b03168214614d2e565b60ff9150614d7090611965846108f8565b54165f614d26565b604051903d82523d5f602084013e60203d83010160405256fe60a08060405261045880380380916100178285610271565b833981016040828203126101b45761002e82610294565b602083015190926001600160401b0382116101b4570181601f820112156101b4578051906001600160401b03821161025d5760405192610078601f8401601f191660200185610271565b828452602083830101116101b457815f9260208093018386015e83010152813b1561023c577fa3f0ad74e5423aebfd80d3ef4346578335a9a72aeaee59ff6cb3582b35133d5080546001600160a01b0319166001600160a01b038416908117909155604051635c60da1b60e01b8152909190602081600481865afa9081156101c0575f91610202575b50803b156101e25750817f1cf3b03a6cf19fa2baba4df148e9dcabedea7f8a5c07840e207e5c089be95d3e5f80a28051156101cb57602060049260405193848092635c60da1b60e01b82525afa80156101c0575f90610181575b61016592506102a8565b505b608052604051610123908161033582396080518160180152f35b506020823d6020116101b8575b8161019b60209383610271565b810103126101b4576101af61016592610294565b61015b565b5f80fd5b3d915061018e565b6040513d5f823e3d90fd5b505034156101675763b398979f60e01b5f5260045ffd5b634c9c8ce360e01b5f9081526001600160a01b0391909116600452602490fd5b90506020813d602011610234575b8161021d60209383610271565b810103126101b45761022e90610294565b5f610101565b3d9150610210565b50631933b43b60e21b5f9081526001600160a01b0391909116600452602490fd5b634e487b7160e01b5f52604160045260245ffd5b601f909101601f19168101906001600160401b0382119082101761025d57604052565b51906001600160a01b03821682036101b457565b905f8091602081519101845af48080610321575b156102dc5750506040513d81523d5f602083013e60203d82010160405290565b1561030157639996b31560e01b5f9081526001600160a01b0391909116600452602490fd5b3d15610312576040513d5f823e3d90fd5b63d6bda27560e01b5f5260045ffd5b503d1515806102bc5750813b15156102bc56fe60806040819052635c60da1b60e01b81526020906004817f00000000000000000000000000000000000000000000000000000000000000006001600160a01b03165afa801560a2575f901560d1575060203d602011609c575b601f19601f820116608001906080821067ffffffffffffffff83111760885760849160405260800160ad565b60d1565b634e487b7160e01b5f52604160045260245ffd5b503d6058565b6040513d5f823e3d90fd5b602090607f19011260cd576080516001600160a01b038116810360cd5790565b5f80fd5b5f8091368280378136915af43d5f803e1560e9573d5ff35b3d5ffdfea2646970667358221220a94162aebc93e70fd9faa27b9d9df06483be92c8b4e230c478b52cab088bbef064736f6c634300081e0033645e039705490088daad89bae25049a34f4a9072d398537b1ab2425f24cbed0180bb2b638cc20bc4d0a60d66940f3ab4a00c1d7b313497ca82fb0b4ab00793009016d09d72d40fdae2fd8ceac6b6234c7706214fd39c1cd1e609a0528c199300645e039705490088daad89bae25049a34f4a9072d398537b1ab2425f24cbed03360894a13ba1a3210667c828492db98dca3e2076cc3735a920a3ca505d382bbc645e039705490088daad89bae25049a34f4a9072d398537b1ab2425f24cbed0280bb2b638cc20bc4d0a60d66940f3ab4a00c1d7b313497ca82fb0b4ab007930280bb2b638cc20bc4d0a60d66940f3ab4a00c1d7b313497ca82fb0b4ab0079304f0c57e16840df040f15088dc2f81fe391c3923bec73e23a9662efc9c229c6a0080bb2b638cc20bc4d0a60d66940f3ab4a00c1d7b313497ca82fb0b4ab0079301a26469706673582212206def6179b05c53f7ed8049663b83bd153018dff74a59f83d9270bc65a147aa3864736f6c634300081e0033","linkReferences":{}},"methodIdentifiers":{"UPGRADE_INTERFACE_VERSION()":"ad3cb1cc","aaveDataProvider()":"a4f4acc5","aavePool()":"a03e4bc3","approve(address,uint256)":"095ea7b3","balanceOf(address)":"70a08231","burn(uint256)":"42966c68","calculateInitOpenParams(address,address,uint256,uint256)":"43024fe5","currentTokenId()":"009a9b7b","defaultBorrowSafetyMargin()":"71f4a707","defaultMaxLeverageOffset()":"62b9b022","exists(uint256)":"4f558e79","feeCollector()":"c415b95c","flashLoanFeeBps()":"c0c7347e","getApproved(uint256)":"081812fc","getPosition(uint256)":"eb02c301","getPositionsByOwner(address)":"6a5d8e8f","getPositionsByOwner(address,uint256)":"080779bb","getStrataxProxy(uint256)":"83a60e99","getTotalPositionsCreated()":"2abb0624","initialize((address,address,address,address,address,address,address,string))":"c928dbf7","isApprovedForAll(address,address)":"e985e9c5","isTokenPairValid(address,address)":"8bdbbbf2","mintPositionNft(address,address,address,bool,(uint256,uint256,uint256,bytes,uint256))":"8114fb5a","name()":"06fdde03","onERC721Received(address,address,uint256,bytes)":"150b7a02","oneInchRouter()":"ac3af208","owner()":"8da5cb5b","ownerOf(uint256)":"6352211e","positions(uint256)":"99fbab88","predictStrataxProxyAddress(address,uint256,address,address)":"f9ae3284","proxiableUUID()":"52d1902d","renounceOwnership()":"715018a6","safeTransferFrom(address,address,uint256)":"42842e0e","safeTransferFrom(address,address,uint256,bytes)":"b88d4fde","setApprovalForAll(address,bool)":"a22cb465","setBaseURI(string)":"55f804b3","setDefaultBorrowSafetyMargin(uint256)":"b14573dc","strataxAddressToTokenId(address)":"207d3733","strataxBeacon()":"7e68402c","strataxOracle()":"83d011bc","supportsInterface(bytes4)":"01ffc9a7","symbol()":"95d89b41","tokenByIndex(uint256)":"4f6ccce7","tokenOfOwnerByIndex(address,uint256)":"2f745c59","tokenURI(uint256)":"c87b56dd","totalSupply()":"18160ddd","transferFrom(address,address,uint256)":"23b872dd","transferOwnership(address)":"f2fde38b","updateAaveFlashLoanBps()":"81346ffb","upgradeToAndCall(address,bytes)":"4f1ef286"},"id":79}